:020000040800F2
:1000000000500020712B0008BD290008BF290008FE
:10001000C1290008C3290008C52900080000000004
:10002000000000000000000000000000C7290008D8
:10003000C929000800000000CB290008CD290008CC
:10004000B92B0008B92B0008B92B0008B92B000800
:10005000B92B0008B92B0008B92B0008B92B0008F0
:10006000B92B0008B92B0008B92B0008B92B0008E0
:10007000B92B0008B92B0008B92B0008B92B0008D0
:10008000B92B0008B92B0008B92B0008B92B0008C0
:10009000B92B0008B92B0008B92B0008B92B0008B0
:1000A000B92B0008B92B0008B92B0008B92B0008A0
:1000B000B92B0008B92B0008B92B0008B92B000890
:1000C000B92B0008B92B0008B92B0008B92B000880
:1000D000B92B0008B92B0008B92B0008B92B000870
:1000E000B92B0008B92B0008B92B0008000000004C
:1000F0000000000000000000000000000000000000
:0C01000000000000000000005FF808F1A3
:10010C0010B5054C237833B9044B13B10448AFF345
:10011C0000800123237010BD780000200000000037
:10012C00BC2B000808B5034B1BB103490348AFF3C4
:10013C00008008BD000000007C000020BC2B0008E3
:10014C00A3F5803A704700BF174B002B08BF134B29
:10015C009D46FFF7F5FF00218B460F461348144AC6
:10016C00121A00F06DF80E4B002B00D098470D4B77
:10017C00002B00D098470020002104000D000D48F2
:10018C00002802D00C48AFF3008000F035F82000B6
:10019C00290002F0D3FC00F01BF800BF000008009F
:1001AC0000000000000000000000000078000020AB
:1001BC00B80000200000000000000000602C0008C7
:1001CC00000000207400002078000020B8000020FF
:1001DC0008B5074B044613B10021AFF30080054B63
:1001EC001868836A03B19847204600F031F800BFC5
:1001FC0000000000202C000870B500260C4D0D4CA2
:10020C00641BA410A64209D102F0D4FC00260A4DAE
:10021C000A4C641BA410A64205D170BD55F8043BD2
:10022C0098470136EEE755F8043B98470136F2E75C
:10023C00582C0008582C0008582C00085C2C00087E
:10024C0003460244934200D1704703F8011BF9E7BF
:10025C00FEE700BF034A136823F07F030843034300
:10026C001360704700000140024A136843F080039A
:10027C001360704700000140024A136823F08003AA
:10028C0013607047000001407047704710B5064B73
:10029C004FF0FF32DA6000241C61DA60DC60FFF79B
:1002AC00F4FF204610BD00BF0010024010B50446FC
:1002BC000E4B18784FF47A73B3FBF0F30C4A1068BA
:1002CC00B0FBF3F001F00AFC68B90F2C01D9012046
:1002DC000AE0002221464FF0FF3001F095FB054B60
:1002EC001C60002000E0012010BD00BF6800002051
:1002FC00700000206C00002008B5074A136843F01A
:10030C0010031360032001F06DFB0F20FFF7CEFFED
:10031C0002F05AFB002008BD00200240034A11687D
:10032C00034B1B780B441360704700BF94000020F4
:10033C0068000020014B1868704700BF9400002033
:10034C00014B1868704700BF6C00002010B5084BBB
:10035C001C78844201D1002010BD1870054B186820
:10036C00FFF7A4FF0028F7D0014B1C70F4E700BF87
:10037C00680000206C000020014B1878704700BF0B
:10038C006800002038B50446FFF7D4FF0546B4F1E9
:10039C00FF3F02D0044B1B781C44FFF7CBFF401BE4
:1003AC00A042FAD338BD00BF680000204FF0E02215
:1003BC00136923F00203136170474FF0E0221369B5
:1003CC0043F00203136170470048704700080101B5
:1003DC00014B1868000C7047002004E0024B1868B1
:1003EC00C0F30B00704700BF002004E0014BD3F8B2
:1003FC00E807704700F0FF1F014BD3F8EC0770477C
:10040C0000F0FF1F014BD3F8F007704700F0FF1FFF
:10041C00024A536843F0010353607047002004E024
:10042C00024A536823F0010353607047002004E034
:10043C00024A536843F0020353607047002004E003
:10044C00024A536823F0020353607047002004E013
:10045C00024A536843F0040353607047002004E0E1
:10046C00024A536823F0040353607047002004E0F1
:10047C0082B0084B1B68084AA2FB03235B0A00FBF3
:10048C0003F3019300BF019B5A1E0192002BF9D17B
:10049C0002B0704770000020D34D621070B5FFF7AA
:1004AC0049FF0446364A136843F001031360344B8A
:1004BC001B6813F0020F07D1FFF73CFF001B02284B
:1004CC00F5D90324204670BD2D4D2B6823F0F8037D
:1004DC0043F080032B60FFF72DFF044600236B6075
:1004EC00274B5B6813F00C0F08D0FFF723FF001BA2
:1004FC0041F288339842F3D90324E3E7214B224A93
:10050C001A60224B1868FFF7D1FE044608B101248B
:10051C00D8E7FFF70FFF0546194A136823F08073DD
:10052C001360174B1B6813F0007F06D0FFF702FF18
:10053C00401B0228F5D90324C4E7114E0023736035
:10054C00FFF7F8FE0546336823F4102333600C4B99
:10055C001B6813F4003F06D0FFF7ECFE401B642829
:10056C00F5D90324AEE7064B1A6822F480221A60F0
:10057C005A6A42F080725A6200229A60A2E700BF67
:10058C00001002407000002000127A006C00002065
:10059C00002800F0F18170B582B00446036813F0B6
:1005AC00010F2CD0994B5B6803F00C03042B1DD06E
:1005BC00964B5B6803F00C03082B12D06368B3F501
:1005CC00803F41D0002B55D103F1804303F5043318
:1005DC001A6822F480321A601A6822F480221A6097
:1005EC0037E08A4B5B6813F4803FE7D0874B1B687E
:1005FC0013F4003F03D06368002B00F0BF81236825
:10060C0013F0020F75D0814B5B6813F00C0F5FD0A9
:10061C007E4B5B6803F00C03082B54D02369002B32
:10062C0000F08A807A4B01221A60FFF783FE0546A0
:10063C00764B1B6813F0020F75D1FFF77BFE401B46
:10064C000228F5D903209EE1704A136843F48033E5
:10065C001360636843B3FFF76DFE05466B4B1B6875
:10066C0013F4003FCBD1FFF765FE401B6428F5D98E
:10067C00032088E1B3F5A02F09D0644B1A6822F44B
:10068C0080321A601A6822F480221A60E1E703F1C2
:10069C008043A3F53C331A6842F480221A601A682E
:1006AC0042F480321A60D4E7FFF744FE0546574BFC
:1006BC001B6813F4003FA2D0FFF73CFE401B6428DC
:1006CC00F5D903205FE1514B5B6813F4803FA5D152
:1006DC004E4B1B6813F0020F03D02369012B40F023
:1006EC004F814A4A136823F0F803616943EAC10356
:1006FC001360236813F0080F33D0A369002B5CD070
:10070C00434B0122C3F88024FFF714FE05463F4BF0
:10071C005B6A13F0020F21D1FFF70CFE401B02287D
:10072C00F5D903202FE1394A136823F0F8036169E6
:10073C0043EAC1031360DCE7354B00221A60FFF774
:10074C00F9FD0546314B1B6813F0020FD1D0FFF7B2
:10075C00F1FD401B0228F5D9032014E10120FFF71D
:10076C0087FE236813F0040F00F09680274BDB699B
:10077C0013F0805F34D1254BDA6942F08052DA6194
:10078C00DB6903F080530193019B0125214B1B680E
:10079C0013F4807F26D0E368012B3DD0002B53D17E
:1007AC0003F1804303F504331A6A22F001021A6242
:1007BC001A6A22F004021A6233E0154B0022C3F8C5
:1007CC008024FFF7B7FD0546104B5B6A13F0020F50
:1007DC00C7D0FFF7AFFD401B0228F5D90320D2E0AC
:1007EC000025D3E70B4A136843F480731360FFF7BB
:1007FC00A1FD0646074B1B6813F4807FCBD1FFF796
:10080C0099FD801B6428F5D90320BCE00010024040
:10081C0000004242007000405F4A136A43F001033B
:10082C001362E36833B3FFF785FD06465A4B1B6A28
:10083C0013F0020F2FD1FFF77DFD801B41F288339F
:10084C009842F3D903209EE0052B09D0524B1A6A2B
:10085C0022F001021A621A6A22F004021A62E0E71C
:10086C004D4B1A6A42F004021A621A6A42F00102F3
:10087C001A62D6E7FFF75EFD0646474B1B6A13F07C
:10088C00020F08D0FFF756FD801B41F288339842C7
:10089C00F3D9032077E0E5B9E369002B72D03E4A27
:1008AC00526802F00C02082A56D0022B17D03B4B90
:1008BC0000221A66FFF73EFD0446374B1B6813F007
:1008CC00007F47D0FFF736FD001B0228F5D9032027
:1008DC0059E0314AD36923F08053D361DCE72F4BC5
:1008EC0000221A66FFF726FD05462B4B1B6813F0FA
:1008FC00007F06D0FFF71EFD401B0228F5D9032010
:10090C0041E0236AB3F5803F1AD023494B6823F4A6
:10091C007413226A606A024313434B601F4B01221B
:10092C001A66FFF707FD04461B4B1B6813F0007F8C
:10093C000ED1FFF7FFFC001B0228F5D9032022E0A3
:10094C00154A536823F40033A1680B435360DCE76A
:10095C00002018E0002016E0012B16D00E4B5B682F
:10096C0003F48031226A914211D103F47013626A4C
:10097C0093420ED1002006E001207047012002E0D6
:10098C00012000E0002002B070BD0120FBE7012037
:10099C00F9E70120F7E700BF0010024000004242D7
:1009AC0030B587B00D46002302930393049305934F
:1009BC0002230393032305934FF4807302930A4C91
:1009CC00A36943F00403A361A36903F00403019337
:1009DC00019B02A9054800F0D7FA636823F0E06395
:1009EC002B43636007B030BD00100240000801408B
:1009FC00014B0122DA64704700004242014B002295
:100A0C00DA6470470000424286B0174B0FCB0DF1F1
:100A1C00180C0CE90F0040F20123ADF80430134B15
:100A2C005B6803F00C02082A02D0114806B070472C
:100A3C00C3F3834218326A4412F8100C13F4803F4B
:100A4C000DD00A4B5B68C3F3404318336B4413F867
:100A5C00143C074A02FB00F0B0FBF3F0E6E7054B51
:100A6C0003FB00F0E2E700BF242C0008001002405A
:100A7C0000127A0000093D00002800F0A08070B53B
:100A8C000D460446524B1B6803F007038B420BD2F6
:100A9C004F4A136823F007030B431360136803F0EA
:100AAC0007038B4240F08D80236813F0020F17D0A0
:100ABC0013F0040F04D0474A536843F4E0635360C7
:100ACC00236813F0080F04D0424A536843F4605370
:100ADC005360404A536823F0F003A1680B43536002
:100AEC00236813F0010F31D06368012B20D0022B47
:100AFC0025D0384A126812F0020F64D035494A6882
:100B0C0022F0030213434B60FFF714FC0646314BF3
:100B1C005B6803F00C036268B3EB820F16D0FFF72F
:100B2C0009FC801B41F288339842F0D9032045E040
:100B3C00284A126812F4003FE0D101203EE0254A19
:100B4C00126812F0007FD9D1012037E0204B1B68CE
:100B5C0003F00703AB420AD91D4A136823F00703BD
:100B6C002B431360136803F00703AB422DD12368AA
:100B7C0013F0040F06D0174A536823F4E063E168BE
:100B8C000B435360236813F0080F07D0114A5368C6
:100B9C0023F46053216943EAC1035360FFF734FF28
:100BAC000C4B5B68C3F303130B4AD35CD8400B4B61
:100BBC0018600B4B1868FFF779FB002070BD012003
:100BCC0070470120FAE70120F8E70120F6E700BFA3
:100BDC000020024000100240382C00087000002059
:100BEC006C000020014B1868704700BF700000209B
:100BFC0008B5FFF7F7FF044B5B68C3F30223034A06
:100C0C00D35CD84008BD00BF00100240482C00083F
:100C1C0008B5FFF7E7FF044B5B68C3F3C223034A35
:100C2C00D35CD84008BD00BF00100240482C00081F
:100C3C000F2303602A4B1B6813F4802F30D04FF422
:100C4C00A0234360264A536803F40033836013687F
:100C5C0013F0010F30D001230361214A1368C3F351
:100C6C00C4034361136A13F0040F28D00523C36037
:100C7C001B4B5B6A13F0010F2CD001238361184BC3
:100C8C001B6813F0807F28D00223C361144A536879
:100C9C0003F480330362536803F4701343627047A8
:100CAC000F4B1B6813F4803F03D04FF48033436029
:100CBC00C8E700234360C5E700230361CDE7084B79
:100CCC001B6A13F0010F02D00123C360D0E700238D
:100CDC00C360CDE700238361D1E70123C361D5E76E
:100CEC00001002400F2303600B4B5A6802F0030202
:100CFC0042605A6802F0F00282605A6802F4E062C4
:100D0C00C2605B68DB0803F4E0630361034B1B68A0
:100D1C0003F007030B6070470010024000200240F4
:100D2C007047000008B5064B9B6813F0800F00D18C
:100D3C0008BDFFF7F5FF024B80229A72F8E700BF5F
:100D4C000010024070B582B00446036813F0010F26
:100D5C0036D03F4BDB6913F0805F49D13C4BDA69ED
:100D6C0042F08052DA61DB6903F080530193019BFE
:100D7C000125384B1B6813F4807F3BD0344B1B6A26
:100D8C0013F4407313D0626802F440729A420ED08E
:100D9C002F4A136A23F440702F490126C1F840648E
:100DAC000026C1F84064106213F0010F36D1284AB6
:100DBC00136A23F4407361680B431362002D3ED118
:100DCC00236813F0020F06D0214A536823F44043E2
:100DDC00A1680B435360236813F0100F34D01C4AE6
:100DEC00536823F48003E1680B43536000202CE02C
:100DFC000025BEE7174A136843F480731360FFF7AE
:100E0C0099FA0646134B1B6813F4807FB6D1FFF793
:100E1C0091FA801B6428F5D9032016E0FFF78AFAB3
:100E2C0006460B4B1B6A13F0020FC0D1FFF782FA78
:100E3C00801B41F288339842F3D9032005E0D36933
:100E4C0023F08053D361BBE7002002B070BD00BF1C
:100E5C000010024000700040000042420123036079
:100E6C00084B1A6A02F440724260032202605A680C
:100E7C0002F440428260132202605B6803F4800338
:100E8C00C36070470010024000B587B08446394BF0
:100E9C000FCB0DF1180E0EE90F0040F20123ADF847
:100EAC000430BCF1020F56D0BCF1100F06D0BCF1CF
:100EBC00010F2ED0002007B05DF804FB2E4B5A68B2
:100ECC00186810F08070F6D0C2F3834318336B446B
:100EDC0013F8100C12F4803F17D0274B5B68C3F348
:100EEC00404318336B4413F8142C244BB3FBF2F32C
:100EFC0003FB00F0204B5B6813F4800FDBD1400048
:100F0C001F4BA3FB00304008D5E71E4B03FB00F042
:100F1C00F0E7194B1B6A40F202321A40B2F5817F9E
:100F2C0024D003F44073B3F5007F04D0B3F5407FB5
:100F3C0009D00020BFE7104A526A12F0020FF5D018
:100F4C0049F64040B7E70C4B186810F40030B2D0AB
:100F5C004FF22440AFE7FFF75BFE074B5B68C3F330
:100F6C00813301335B00B0FBF3F0A4E74FF4004096
:100F7C00A1E700BF242C00080010024000127A00E8
:100F8C00ABAAAAAA00093D0070B582B00024A44601
:100F9C00A6E0804DAA4210D007D97F4DAA420CD0B2
:100FAC0005F58035AA4208D013E0A5F58015AA42B4
:100FBC0003D005F57025AA4207D18A68002A58D0BB
:100FCC00012A51D04361082403E0A5F58015AA42FB
:100FDC00F3D0BEF1FF0F4ED80646BEF1FF0F4CD832
:100FEC004FEA8C0233680F25954023EA050304FA77
:100FFC0002F2134333604B6813F0805F6ED0674B83
:10100C009A6942F001029A619B6903F00103019312
:10101C00019B4FEA9C02951C614B53F825600CF028
:10102C0003039D000F23AB4026EA03065D4B984259
:10103C0029D003F58063984200F08E8003F580631D
:10104C00984200F08B8003F58063984219D00423FA
:10105C001AE0CC68BDE7CC680434BAE7CC68083435
:10106C00B7E7CC680C34B4E703610824B1E700247B
:10107C00AFE70424ADE7061DAFE7ACF10802920020
:10108C00B0E7032300E00023AB4033430232444D6E
:10109C0045F822304B6813F4803F61D0424A136804
:1010AC0043EA0E0313604B6813F4003F5ED03E4AD4
:1010BC00536843EA0E0353604B6813F4801F5BD0F4
:1010CC00394A936843EA0E0393604B6813F4001F8C
:1010DC0058D0354AD36843EA0E03D3600CF1010CA7
:1010EC000A6832FA0CF353D0012303FA0CF302EA28
:1010FC00030E33EA0202F1D14A68122A3FF649AFD5
:10110C00122A3FF666AF01A555F822F0C70F00086A
:10111C005F100008691000087B100008DF0F000842
:10112C00DF0F0008DF0F0008DF0F0008DF0F0008DB
:10113C00DF0F0008DF0F0008DF0F0008DF0F0008CB
:10114C00DF0F0008DF0F0008DF0F0008DF0F0008BB
:10115C00631000086F100008012395E7022393E742
:10116C00114A136823EA0E0313609CE70E4A536876
:10117C0023EA0E0353609FE70B4A936823EA0E039E
:10118C009360A2E7084AD36823EA0E03D360A5E76D
:10119C0002B070BD0000221000003110001002409F
:1011AC0000000140000801400004014000226DE0F5
:1011BC00032500E0002505FA04F4644542D0FF2B1A
:1011CC005BD80646FF2B5AD8950034684FF00F0EAB
:1011DC000EFA05FE24EA0E044FF0040C0CFA05FC82
:1011EC0044EA0C043460C46824EA0303C36001328B
:1011FC0031FA02F348D0012393400B40F7D04FEA69
:10120C00920E0EF10205264C54F8255002F0030400
:10121C00A4000F26A64006EA050C224DA842C9D010
:10122C0005F58065A84209D005F58065A84207D070
:10123C0005F58065A842BBD00425BCE70125BAE7BB
:10124C000225B8E7164F0EF1020457F8245025EA90
:10125C00060647F82460144C256825EA030525602A
:10126C00656825EA03056560A56825EA0305A560A0
:10127C00E56825EA0305E560A1E7061DA2E7A2F1F2
:10128C00080C4FEA8C05A0E7F0BD013231FA02F3ED
:10129C0005D0012393400B40F7D0F0B5AFE7704772
:1012AC00000001400008014000040140836819421D
:1012BC0001D001207047002070470AB101617047CE
:1012CC00090401617047C36801EA030221EA0301C2
:1012DC0041EA02410161704782B04FF480330193BF
:1012EC00019B0B430193019B83618161019B836192
:1012FC0083690193836913F4803F02D0002002B00C
:10130C0070470120FBE7704708B5054B5B6903424A
:10131C0000D108BD024B5861FFF7F5FFF9E700BF9C
:10132C000004014030B40124056CAC40C56B6C600A
:10133C00046863604368102B05D0036899600368E8
:10134C00DA6030BC704703689A600368D960F8E7CC
:10135C0060B310B402460168154B0B441548A0FB52
:10136C0003031B099B001364134BD363022382F802
:10137C002130086820F47F5020F0300053689468C6
:10138C002343D46823431469234354692343946946
:10139C002343D469234303430B6000209063012350
:1013AC0082F8213082F8200010BC70470120704771
:1013BC00F8FFFDBFCDCCCCCC00000240002829D0DA
:1013CC0010B4034601680A6822F001020A60026840
:1013DC00002010601A6850601A6890601A68D0601B
:1013EC0019680D4A0A440D49A1FB02121209920018
:1013FC001A640B4CDC63012101FA02F26260986200
:10140C00D86218635863986383F8210083F820002E
:10141C0010BC704701207047F8FFFDBFCDCCCCCC81
:10142C000000024070B5044690F8200001281FD03F
:10143C00012084F8200094F82100012804D0002316
:10144C0084F82030022070BD022084F82100002591
:10145C00A5632668306820F0010030602046FFF755
:10146C0061FF2268136843F0010313602846EAE722
:10147C000220E8E738B5044690F82000012831D066
:10148C00012084F8200094F82100012804D00023C6
:10149C0084F82030022038BD022084F8210000207E
:1014AC00A0632568286820F0010028602046FFF71B
:1014BC0039FFE36A5BB12268136843F00E031360D3
:1014CC002268136843F0010313600020E3E72268ED
:1014DC00136823F0040313602268136843F00A03B3
:1014EC001360EDE70220D6E790F82130022B06D0EE
:1014FC0004238363002380F82030012070470268A6
:10150C00136823F00E0313600268136823F00103C1
:10151C001360036CC16B012202FA03F34B6080F879
:10152C002120002380F820301846704708B590F829
:10153C002130022B03D004238363012008BD0268F1
:10154C00136823F00E0313600268136823F0010381
:10155C0013600368194A934214D0143293421FD07B
:10156C00143293421ED0143293421ED01432934242
:10157C001ED01432934202D04FF0807203E04FF42D
:10158C00801200E001220E4B5A60012380F82130BA
:10159C00002380F82030436B6BB198470020CDE7D7
:1015AC001022F0E74FF48072EDE74FF48052EAE737
:1015BC004FF48032E7E70020C0E700BF080002408C
:1015CC00000002402DE9F041044690F82130022B36
:1015DC0007D004238363002380F820300120BDE86A
:1015EC00F0810F46154603681A6812F0200F15D1CA
:1015FC00E1B97D4A934231D01432934233D0143244
:10160C00934232D01432934232D01432934232D0BD
:10161C001432934207D04FF0007620E04FF48073E1
:10162C0083630120DBE74FF4001618E06E4A934207
:10163C0024D01432934223D01432934222D0143249
:10164C00934222D01432934222D01432934202D0CD
:10165C004FF0806603E04FF4800600E00226FEF7B0
:10166C0069FE804620E02026F9E74FF40076F6E785
:10167C004FF40056F3E74FF40036F0E70426EEE79C
:10168C004026ECE74FF48066E9E74FF48046E6E746
:10169C004FF48026E3E74FF4000300E008231A42DE
:1016AC0029D1B5F1FF3F35D1504B1B68334243D1A3
:1016BC004E4B1A6823684C498B42EFD014318B4245
:1016CC000ED014318B420DD014318B420DD014310D
:1016DC008B420DD014318B42DDD04FF00063DEE72E
:1016EC008023DCE74FF40063D9E74FF40043D6E7DF
:1016FC004FF40023D3E7236CE26B012000FA03F3D1
:10170C005360A36B0343A36384F82100002384F884
:10171C00203064E72DB1FEF70DFEA0EB0800A842C7
:10172C00C2D9A36B43F02003A363012084F82100EA
:10173C00002384F8203052E76FBB23682A4A934277
:10174C0014D0143293421BD0143293421AD0143258
:10175C0093421AD0143293421AD01432934202D0CC
:10176C004FF0007203E04FF4001200E002221F4B16
:10177C005A60012384F82130002084F820002EE7E1
:10178C002022F4E74FF40072F1E74FF40052EEE739
:10179C004FF40032EBE72368134A934214D014320F
:1017AC00934215D01432934214D01432934214D075
:1017BC001432934214D01432934202D04FF0806210
:1017CC0003E04FF4800200E00422084B5A60D3E798
:1017DC004022FAE74FF48062F7E74FF48042F4E7D7
:1017EC004FF48022F1E700BF0800024000000240E5
:1017FC0038B5C36B1A6804682568016C04238B40E8
:10180C00134235D015F0040F32D0236813F0200F9B
:10181C0003D1236823F0040323600368434A9342F3
:10182C0014D01432934218D01432934217D014327D
:10183C00934217D01432934217D01432934202D0F1
:10184C004FF0806203E04FF4800200E00422384B3A
:10185C005A60C36A03B1984738BD4022F7E74FF48A
:10186C008062F4E74FF48042F1E74FF48022EEE718
:10187C0002238B4013423CD015F0020F39D0236861
:10188C0013F0200F06D1236823F00A0323600123F1
:10189C0080F821300368254A934214D014329342C5
:1018AC001CD0143293421BD0143293421BD01432EE
:1018BC0093421BD01432934202D04FF0007203E0DB
:1018CC004FF4001200E00222194B5A60002380F8FA
:1018DC002030836A002BBFD09847BDE72022F3E766
:1018EC004FF40072F0E74FF40052EDE74FF4003282
:1018FC00EAE7082303FA01F11142ADD015F0080F05
:10190C00AAD0236823F00E032360026CC16B012361
:10191C0003FA02F24A60836380F82130002380F8D6
:10192C002030036B002B97D0984795E708000240B6
:10193C0000000240034690F8200001281DD0012031
:10194C0083F8200093F82100012804D00120002204
:10195C0083F8202070470329F9D8DFE801F002054D
:10196C00080B9A620846F2E7DA620020EFE71A6386
:10197C000020ECE75A630020E9E702207047034699
:10198C0090F82020012A25D0012280F8202090F800
:10199C002100904204D00120002283F820207047BF
:1019AC000429F9D8DFE801F003070A0D1000002222
:1019BC009A620846F0E70020D862EDE70020186331
:1019CC00EAE700205863E7E700209862D8621863C2
:1019DC005863E1E70220704790F821007047806B54
:1019EC0070470000074AD36823F4E0631B041B0C08
:1019FC00000200F4E060034343F0BF6343F40033A0
:101A0C00D360704700ED00E000B5194BDB68C3F301
:101A1C000223C3F1070CBCF1040F28BF4FF0040CD8
:101A2C0003F1040EBEF1060F18D9033B4FF0FF3E35
:101A3C000EFA0CFC21EA0C0199400EFA03F322EA8F
:101A4C000303194300280BDB0901C9B200F1604004
:101A5C0000F5614080F800135DF804FB0023E5E716
:101A6C0000F00F000901C9B2024B1954F4E700BF92
:101A7C0000ED00E014ED00E0002807DB00F01F0291
:101A8C00400901239340024A42F82030704700BFBE
:101A9C0000E100E000280CDB00F01F0240090123EC
:101AAC0093402030034A42F82030BFF34F8FBFF3EE
:101ABC006F8F704700E100E0BFF34F8F0549CA6894
:101ACC0002F4E062044B1343CB60BFF34F8F00BFB3
:101ADC00FDE700BF00ED00E00400FA050138B0F1AD
:101AEC00807F0BD24FF0E0235861054AF02182F839
:101AFC0023100020986107221A617047012070475B
:101B0C0000ED00E0024BD868C0F30220704700BF24
:101B1C0000ED00E010B5002822DB00F1604000F57C
:101B2C00614090F80003000901F00701C1F1070CB6
:101B3C00BCF1040F28BF4FF0040C0C1D062C15D95A
:101B4C00033920FA01F44FF0FF3E0EFA0CFC24EAA4
:101B5C000C0414600EFA01F120EA0100186010BDAB
:101B6C0000F00F00024C205C0009DDE70021E8E7E3
:101B7C0014ED00E0002808DB00F01F0240090123EF
:101B8C0093404030014A42F82030704700E100E0B9
:101B9C0000280BDB43094033054A52F8233000F090
:101BAC001F0023FA00F000F001007047002070477E
:101BBC0000E100E0002808DB00F01F0240090123CF
:101BCC0093406030014A42F82030704700E100E059
:101BDC0000280BDB43098033054A52F8233000F010
:101BEC001F0023FA00F000F001007047002070473E
:101BFC0000E100E0042806D04FF0E022136923F046
:101C0C000403136170474FF0E022136943F004039F
:101C1C0013617047704708B5FFF7FCFF08BD20BF84
:101C2C0000BF7047044B1A6942F080521A611A695E
:101C3C0022F080521A61704700100240014B0122C1
:101C4C001A62704700000E42014B00221A62704764
:101C5C0000000E421E4A136823F0E00301680B4398
:101C6C0013601C4B5A6822F480325A601A6822F4B2
:101C7C0080321A60DA6822F48032DA609A6822F4D0
:101C8C0080329A60436813F4803F04D0114A136881
:101C9C0043F480331360436813F4003F04D00D4ABF
:101CAC00536843F480335360436813F0010F04D03E
:101CBC00084A936843F480339360436813F0020F2F
:101CCC0004D0044AD36843F48033D360704700BF18
:101CDC000070004000040140014B01221A61704762
:101CEC0000000E42014B00221A61704700000E42A8
:101CFC0090FAA0F0B0FA80F0024B03449B00012252
:101D0C001A6070472080831090FAA0F0B0FA80F02F
:101D1C00024B03449B0000221A6070472080831002
:101D2C00064A136923F004031361012903D040BF51
:101D3C0020BF20BF704730BF704700BF00ED00E0F0
:101D4C0010B50F4A146824F002041460136823F0D1
:101D5C000103034313600B4A136943F0040313613B
:101D6C00012906D130BF074A136923F0040313611C
:101D7C0010BD40BFFFF753FFFFF751FFF3E700BF64
:101D8C000070004000ED00E0054A136843F00203C8
:101D9C001360044A136943F00403136130BF7047A6
:101DAC000070004000ED00E0024A136943F00203AA
:101DBC001361704700ED00E0024A136923F002033F
:101DCC001361704700ED00E0024A136943F0100301
:101DDC001361704700ED00E0024A136923F0100311
:101DEC001361704700ED00E07047000008B5064B2A
:101DFC005B6913F4803F00D108BDFFF7F5FF024B80
:101E0C004FF480325A61F7E700040140044B002282
:101E1C00DA61044A136943F00103136101807047CE
:101E2C009800002000200240194BDB6813F01003CF
:101E3C0005D0184AD36943F00203D3611023144A26
:101E4C00D26812F0040F06D01249CA6942F001029E
:101E5C00CA6143F004030E4AD26912F0010F09D093
:101E6C000C49CA6942F00402CA610949CA6922F0E4
:101E7C000102CA6140F20112934202D0044AD360BB
:101E8C007047034AD36923F00103D361704700BF45
:101E9C00002002409800002038B51D46174B1B7ED1
:101EAC00012B28D0844608461446144B01221A767E
:101EBC0013490A6942F4A0520A619860C3E90445C7
:101ECC00BCF1010F0CD0BCF1020F0ED00B4B052254
:101EDC001A7004225A60A1B2FFF798FF002038BD97
:101EEC0003221A7001225A60F5E7044B04221A707F
:101EFC0002225A60EFE70220F1E700BF98000020B1
:101F0C000020024070477047F8B5524BDB6813F065
:101F1C00100F04D14F4BDB6813F0040F0BD04E4C59
:101F2C00A5684FF0FF33A360FFF77EFF2846FFF74D
:101F3C00EAFF00232370474BDB6813F0200F2BD0F4
:101F4C00444B2022DA60444B1B782BB3424B1B785A
:101F5C00DBB2012B30D0404B1B78DBB2022B4AD0CA
:101F6C003D4B5A68013A5A605B68002B4FD13A4B93
:101F7C001B78DBB2032B62D0374B1B78DBB2042B04
:101F8C0062D0354B98680638FFF7BCFF324B4FF0E8
:101F9C00FF329A6000221A702F4B1B785BB92D4BC5
:101FAC001A6922F007021A611A6922F4A0521A6106
:101FBC00294B00221A76F8BD274B5A68013A5A6011
:101FCC005B687BB1244CA068FFF79CFFA06800F510
:101FDC008060A0601F4A136923F00203136100F0B4
:101FEC000BFBD9E71C4B4FF0FF30986000221A70A6
:101FFC00FFF788FFD0E7174A136923F00403136136
:10200C000020FFF77FFF144B00221A70C4E7124B1D
:10201C009A6802329A609868D3E90467340C44EAEF
:10202C0007443D0CC3E904450A490A6922F0010240
:10203C000A61D3E9042391B2FFF7E8FEACE7064B43
:10204C009868FFF75FFFA1E7034B98680238FFF72A
:10205C0059FF9BE700200240980000200A4B1B69A7
:10206C0013F0800F0BD0084B084A5A6002F18832EB
:10207C005A601B6913F0800F03D1002070470020B9
:10208C0070470120704700BF0020024023016745C4
:10209C00034A136943F0800313610020704700BFAB
:1020AC0000200240074B1B6913F4007F07D1054B3E
:1020BC00054A9A6002F188329A600020704701202C
:1020CC00704700BF0020024023016745034A136993
:1020DC0023F4007313610020704700BF00200240FE
:1020EC0008B5FFF7E9FC08BD014BD869704700BF84
:1020FC009800002038B50446FEF71CF90546164B2F
:10210C00DB6813F0010F0AD0B4F1FF3FF7D024B114
:10211C00FEF710F9401BA042F1D903201BE00E4B37
:10212C00DB6813F0200F02D00B4B2022DA600A4B35
:10213C00DB6813F0100F0BD1074BDB6913F0010FA9
:10214C0006D1054BDB6813F0040F01D1002002E02F
:10215C00FFF76AFE012038BD002002402DE9F8434C
:10216C001E46244B1B7E012B41D004460F46904645
:10217C00204B01221A764CF25030FFF7BBFF03467E
:10218C0078BB012C08D0022C03D04FF004091C465C
:10219C0007E04FF00209FAE74FF00109F7E70134C5
:1021AC00E4B24C451DD22101C1F12002A1F1200362
:1021BC0028FA01F106FA02F2114326FA03F3194345
:1021CC0089B207EB4400FFF721FE4CF25030FFF7C9
:1021DC0091FF094B1D6925F001051D61034600287F
:1021EC00DDD0044A002111761846BDE8F88302239D
:1021FC00FAE700BF9800002000200240064B0022A6
:10220C00DA61064B1A6942F004021A611A6942F04B
:10221C0040021A61704700BF980000200020024065
:10222C00014B186A704700BF00200240044BDB6969
:10223C0013F0020F01D000207047A520704700BF9B
:10224C0000200240024BD869C0F38200704700BFE7
:10225C000020024038B505464CF25030FFF74AFFDB
:10226C0000B138BD124B0022DA61124C236943F0E5
:10227C0020032361236943F0400323614CF2503067
:10228C00FFF738FF236923F0200323610028E8D1EE
:10229C00236943F010032361A8B2074B18804CF25A
:1022AC005030FFF727FF236923F010032361D8E791
:1022BC00980000200020024000F8FF1F38B50446AB
:1022CC004CF25030FFF716FF00B138BD0A4B00221C
:1022DC00DA610A4D2B6943F010032B6144F088003E
:1022EC00074B58804CF25030FFF704FF2B6923F05A
:1022FC0010032B61E9E700BF98000020002002408A
:10230C0000F8FF1F70B505460C464CF25030FFF735
:10231C00F1FE00B170BD094B0022DA61084E336941
:10232C0043F010033361A1B229804CF25030FFF717
:10233C00E1FE336923F010033361EBE798000020D2
:10234C000020024038B5FFF771FFC5B24CF2503097
:10235C00FFF7D0FE00B138BD0C4B0022DA610C4CFB
:10236C00236943F020032361236943F04003236175
:10237C004CF25030FFF7BEFE236923F0200323619B
:10238C000028E8D12846FFF765FFE4E79800002015
:10239C0000200240F8B50446FFF742FF20EA040093
:1023AC00C5B2C0F30727C0F30746040E4CF25030F9
:1023BC00FFF7A0FE034608B11846F8BD224B0022D9
:1023CC00DA61FFF7BFFF03460028F5D11F490A6900
:1023DC0042F010020A61FF2D0ED10BB9FF2F15D15F
:1023EC000BB9FF2E1CD10BB9FF2C23D117490A694D
:1023FC0022F010020A61DFE7154B1A8915401D8186
:10240C004CF25030FFF776FE0346E6E7104B5A8944
:10241C0017405F814CF25030FFF76CFE0346DFE74C
:10242C000B4B9A8916409E814CF25030FFF762FE9E
:10243C000346D8E7064BD8892040D8814CF250305F
:10244C00FFF758FE0346D1E7980000200020024019
:10245C0000F8FF1FF8B50446FFF7E2FE2043C5B2B3
:10246C00C0F30727C0F30746040E4CF25030FFF7B9
:10247C0041FE034608B11846F8BD254B0022DA612F
:10248C00FFF760FF03460028F5D122490A6942F0A4
:10249C0010020A61FF2D0ED10BB9FF2F16D10BB90B
:1024AC00FF2E1ED10BB9FF2C26D11A490A6922F036
:1024BC0010020A61DFE7184A13899BB21D4315818C
:1024CC004CF25030FFF716FE0346E5E7124A5389EB
:1024DC009BB21F4357814CF25030FFF70BFE034663
:1024EC00DDE70D4A93899BB21E4396814CF2503026
:1024FC00FFF700FE0346D5E7074BD88980B220438F
:10250C00D8814CF25030FFF7F5FD0346CDE700BF04
:10251C00980000200020024000F8FF1F254B1B7E76
:10252C00012B44D010B50446224B01221A760368C5
:10253C0013F0010F0ED04368934207D08068FFF769
:10254C0089FF40B11B4B00221A7613E08068FFF71D
:10255C0021FFF6E70120236813F0020F0BD123684B
:10256C0013F0040F10D1236813F0080F15D1114B81
:10257C0000221A7610BD207CFFF76CFE0028EED0EE
:10258C000C4B00221A76F5E7607CFFF797FE0028CB
:10259C00E9D0084B00221A76ECE7217E6069FFF740
:1025AC00B1FE0028E3D0034B00221A76E2E70220AA
:1025BC00704700BF9800002010B504460723036045
:1025CC00FFF72EFEA060FFF731FE2074FFF73AFEF6
:1025DC00607410BD064B984204D0064BD869C0F30A
:1025EC0087407047034BD869C0F38720704700BF02
:1025FC0004F8FF1F00200240064B0022DA61064B54
:10260C001A6942F002021A6158611A6942F04002DA
:10261C001A6170479800002000200240264B1B7E58
:10262C00012B46D070B505460E46234B01221A7677
:10263C000368022B20D04CF25030FFF75BFD90BBAF
:10264C004FF0FF333360AC680121EA68AB6803EBF1
:10265C008223A34228D92046FFF7CEFF4CF25030FC
:10266C00FFF748FD154A136923F002031361014675
:10267C00B8B904F58064E8E74CF25030FFF73AFD46
:10268C0008B1012110E00120FFF7B8FD4CF25030E9
:10269C00FFF730FD0146094A136923F00403136167
:1026AC0002E0346000E00121034B00221A76084658
:1026BC0070BD02210846704798000020002002409F
:1026CC0010B5154B1B7E012B21D0134B01221A7612
:1026DC001B7803F0FF04E3B9104A136943F4A053C9
:1026EC0013610368022B0BD00B4B01221A70C268CA
:1026FC005A6082689A608068FFF77EFF204610BDA2
:10270C00054B02221A704068FFF778FDF6E70224A9
:10271C00F4E70124F2E700BF9800002000200240FB
:10272C00002860D0002960D070B40B68036003F0FF
:10273C001F020120904013F0007F15D08C6814F01C
:10274C00010F24D02A4DAC680443AC608C6814F0A3
:10275C00020F22D0264DEC680443EC600C6804F0A8
:10276C00C06CBCF1C06F1ED04B6813F0010F2DD0A4
:10277C001F4A1368034313604B6813F0020F2BD0EE
:10278C001B4A536818435060002070BC7047184DAA
:10279C00AC6824EA0004AC60D8E7154DEC6824EA78
:1027AC000004EC60DAE79208124E023256F822402E
:1027BC0003F003039B000F259D4024EA0504CD681C
:1027CC0005FA03F3234346F82230CDE7084A136891
:1027DC0023EA00031360CFE7054A536823EA00009D
:1027EC0050600020D1E7012070470120704700BFE6
:1027FC000004014000000140002848D0002948D0C6
:10280C000068086000F01F0C012303FA0CF3234A44
:10281C0012681A4227D001224A60204A52681A4292
:10282C0003D04A6842F002024A6000228A60CA6001
:10283C0010F0007F2FD002F1804202F582329268B4
:10284C001A4201D001228A60144AD2681A4203D07B
:10285C008B6843F002038B6000F0C063B3F1C06F70
:10286C0004D00020704700224A60D6E74FEA9C0350
:10287C0002330B4A52F823206FEA0C0303F00303D4
:10288C009B0002FA03F31B0ECB6000207047012063
:10289C007047012070470020704700BF00040140C2
:1028AC0000000140002838D010B58446046804F0BC
:1028BC001F00012383401B4A11686FEA030E21EAB3
:1028CC0003011160516821EA03035360DCF8003006
:1028DC0013F0007F23D093680EEA03039360D36850
:1028EC000EEA0303D360DCF8003003F0C063B3F1ED
:1028FC00C06F01D0002013E080080B49023051F862
:10290C00203004F00304A4000F2202FA04F423EA9A
:10291C00040441F82040002002E001207047002010
:10292C0010BD00BF000401400000014003460846F2
:10293C0009B95A6070470120704710B1016000203E
:10294C00704701207047000008B5036803F01F02B0
:10295C0001239340044A52691A4204D0024A53613B
:10296C00436803B1984708BD00040140036803F0B5
:10297C001F03012000FA03F2024948691040D840B5
:10298C00704700BF00040140026802F01F020123DF
:10299C009340014A5361704700040140026802F001
:1029AC001F0201239340014A136170470004014048
:1029BC00FEE7FEE7FEE7FEE7FEE77047704770476D
:1029CC0008B5FDF7ABFC08BD82B00A4B9A6942F022
:1029DC0001029A619A6902F001020092009ADA6986
:1029EC0042F08052DA61DB6903F080530193019B62
:1029FC0002B0704700100240704700001F4B5B682C
:102A0C0003F00C03042B14D0082B16D01BB11C4B59
:102A1C001C4A1A6002E01A4B1A4A1A60174B5B6880
:102A2C00C3F30313184AD15C154A1368CB401360E7
:102A3C007047134B134A1A60F0E7104A53685268F8
:102A4C00C3F38343023312F4803F05D10F4A02FBD8
:102A5C0003F30B4A1360E1E7084A526812F4003F93
:102A6C0005D00A4A02FB03F3054A1360D6E7054A70
:102A7C0002FB03F3024A1360D0E700BF00100240D0
:102A8C007000002000127A00382C000800093D006C
:102A9C0030B587B0002402940394049405940F4B32
:102AAC009A6942F010029A619B6903F0100301933A
:102ABC00019B0B4D22464FF400512846FEF7FDFBBF
:102ACC004FF40053029301230393049402230593C0
:102ADC0002A92846FEF758FA07B030BD0010024094
:102AEC000010014072B6FEE700B591B0282200211B
:102AFC0006A8FDF7A5FB002301930293039304930F
:102B0C0005930223069301230A9310230B9306A823
:102B1C00FDF73EFD68B90F2301930021029103914B
:102B2C000491059101A8FDF7A7FF20B911B05DF83C
:102B3C0004FBFFF7D7FFFFF7D5FF000008B5FDF743
:102B4C00DBFBFFF7D1FFFFF7A3FF4FF40051044865
:102B5C00FEF7B9FB4FF47A70FDF714FCF5E700BFF4
:102B6C00001001400C480D490D4A002302E0D458D6
:102B7C00C4500433C4188C42F9D30A4A0A4C0023BB
:102B8C0001E013600432A242FBD3FFF735FFFDF7DF
:102B9C0033FBFFF7D3FF70470000002074000020C8
:102BAC00602C000878000020B8000020FEE7000030
:102BBC0000000000F8B500BFF8BC08BC9E4670478A
:0C2BCC00F8B500BFF8BC08BC9E4670477E
:102BD8003B3E0B3E103E253E333E033E063E143E32
:102BE8000E3E0D3E243E123E273E023E183E093E52
:102BF8000A3E00003B3E0B3E103E253E333E033E60
:102C0800063E143E0E3E0D3E243E123E273E023E38
:102C1800183E093E0A3E0000080000200203040591
:102C2800060708090A0B0C0D0E0F10100000000013
:102C38000000000000000000010203040607080964
:082C480000000000010203047A
:082C5000FCD4FF7F010000002D
:042C5800310100083E
:042C5C000D0100085E
:102C6000000000000800002000000000000000003C
:102C70000000000000000000000000000000000054
:102C80000000000000000000000000000000000044
:102C90000000000000000000000000000000000034
:102CA0000000000000000000000000000000000024
:102CB0000000000000000000000000000000000014
:102CC00000000000000000000100000010000000F3
:042CD0000024F400E8
:0400000508002B7153
:00000001FF
