:020000040800F2
:1000000000500020F93B0008690200086B0200085C
:100010006D0200086F020008710200080000000075
:100020000000000000000000000000007302000853
:10003000750200080000000077020008790200083D
:10004000413C0008413C0008413C0008413C00089C
:10005000413C0008413C0008413C0008413C00088C
:10006000413C0008413C0008413C0008413C00087C
:10007000413C0008413C0008413C0008413C00086C
:10008000413C0008413C0008413C0008413C00085C
:1000900081020008413C0008413C0008413C000846
:1000A000413C0008413C0008413C0008413C00083C
:1000B000413C0008413C0008413C0008413C00082C
:1000C000413C0008413C0008413C0008413C00081C
:1000D000413C0008413C0008413C0008413C00080C
:1000E000413C0008413C0008413C00080000000081
:1000F0000000000000000000000000000000000000
:0C01000000000000000000005FF808F1A3
:10010C0010B5054C237833B9044B13B10448AFF345
:10011C0000800123237010BDE001002000000000CE
:10012C00F84C000808B5034B1BB103490348AFF367
:10013C00008008BD00000000E4010020F84C00081D
:10014C00034613F8012B002AFBD1181A013870470B
:10015C0084B00F4B9A6942F010029A619A6902F0CE
:10016C0010020192019A9A6942F020029A619A69EE
:10017C0002F020020292029A9A6942F004029A61F9
:10018C009B6903F004030393039B04B0704700BF07
:10019C000010024072B6FEE700B595B0282200218F
:1001AC000DEB020003F06CFD0023059306930793FF
:1001BC0008930993019302930393049301220A92E7
:1001CC004FF480330B930E920222119212934FF440
:1001DC00801313930AA802F097FAD0B90F23059352
:1001EC0002230693002307934FF48062089209932D
:1001FC00012105A802F0C8FC68B9102301934FF443
:10020C008003049301A802F075FD30B915B05DF8B8
:10021C0004FBFFF7BFFFFFF7BDFFFFF7BBFF0000BD
:10022C0000B583B002F022FAFFF7B6FFFFF790FF9C
:10023C0000F040F8084B93E803000090ADF8041070
:10024C006846FFF77DFF81B2684600F01DF94FF458
:10025C00FA7002F02FFAF3E7104D0008FEE7FEE704
:10026C00FEE7FEE7FEE770477047704708B502F0FF
:10027C000FFA08BD08B5024800F0AFFF08BD00BF7B
:10028C00C00E002082B00A4B9A6942F001029A61BA
:10029C009A6902F001020092009ADA6942F08052E7
:1002AC00DA61DB6903F080530193019B02B0704764
:1002BC000010024008B500220F49104802F014FE4D
:1002CC0070B90F490D4802F033FE60B90D490B4867
:1002DC0003F045FC50B9094802F040FE48B908BD8E
:1002EC00FFF758FFEDE7FFF755FFEFE7FFF752FF7A
:1002FC00F1E7FFF74FFFF2E700000020FC010020C0
:10030C006C0000205000002012230B800048704726
:10031C001C00002004230B80004870473000002094
:10032C00002393421ED200B510E00CF1370C01F8FB
:10033C0013C000014FEA430C0CF1010C4FF0000EFE
:10034C0001F80CE00133DBB2934209D24FEA107C86
:10035C00B0F1204FE9D20CF1300C01F813C0E8E7F2
:10036C005DF804FB7047000038B50B4BD3F8E80779
:10037C00D3F8EC47D3F8F037C01800D138BD074D8F
:10038C000822A91CFFF7CCFF042205F1120120461C
:10039C00FFF7C6FFF2E700BF00F0FF1F340000209C
:1003AC0008B51A230B80FFF7DFFF014808BD00BF1B
:1003BC003400002008B50A4628B90549054803F061
:1003CC0024FA034808BD0249024803F01EFAF8E774
:1003DC00C0040020184D000810B50A46034C2146F5
:1003EC00034803F012FA204610BD00BFC0040020E1
:1003FC00304D000808B50A4628B90549054803F0F0
:10040C0004FA034808BD0249024803F0FEF9F8E774
:10041C00C0040020444D000808B50A4628B9054917
:10042C00054803F0F2F9034808BD0249024803F0FD
:10043C00ECF9F8E7C0040020504D0008002070478C
:10044C000020704710B50146044C204603F096FB83
:10045C00204603F0B3FB002010BD00BFFC010020C0
:10046C0010B5064C00220649204603F07FFB0549D7
:10047C00204603F083FB002010BD00BFFC010020D0
:10048C00C00A0020C0060020094BD3F8B832D3F8BC
:10049C0014320BB10120704710B5054C0A460146C9
:1004AC00204603F063FB204603F06EFB10BD00BF3B
:1004BC00FC010020022805D8DFE800F0050402004A
:1004CC00012070470220704702680E4B9A4200D000
:1004DC00704700B583B003F5DA33DA6942F40002F1
:1004EC00DA61DB6903F400030193019B00221146DE
:1004FC00142002F09DFC142002F0D2FC03B05DF835
:10050C0004FB00BF005C004008B500F52C71D0F86E
:10051C00E80202F03BFD08BD08B501EB810300EBDE
:10052C00C303D3F87C21D0F8E80202F05CFD08BDCF
:10053C0008B501EB810300EBC303DA6BD0F8E802DA
:10054C0002F097FD08BD08B5D0F8E80202F038FEBD
:10055C0008BD10B504468368022B09D10121D4F8DB
:10056C00E80202F016FED4F8E80202F0EAFD10BD33
:10057C00FFF710FEF2E7000010B50446D0F8E802D1
:10058C0002F00AFEA36923B1024A136943F0060381
:10059C00136110BD00ED00E008B5D0F8E80202F0E0
:1005AC0004FE08BD10B504461D48C0F8E842C4F866
:1005BC00C0021C4B036008234360022383600023AA
:1005CC008361C361036200F023F930BB182300225E
:1005DC001146D4F8C00201F028F8582300228021DB
:1005EC00D4F8C00201F021F8C02300228121D4F8F4
:1005FC00C00201F01AF84FF4887300220121D4F8DC
:10060C00C00201F012F84FF4807300228221D4F85A
:10061C00C00201F00AF8002010BDFFF7BBFDD5E7C2
:10062C00C00E0020005C004008B5D0F8C00200F0FD
:10063C007BF9FFF73FFF08BD08B594461A466346A1
:10064C00D0F8C00200F0B3FEFFF734FF08BD08B5C8
:10065C00D0F8C00200F0EDFEFFF72CFF08BD08B586
:10066C00D0F8C00200F06AFFFFF724FF08BD08B500
:10067C00D0F8C00200F09EFFFFF71CFF08BDD0F8B9
:10068C00C03211F0800F08D101F07F0101EB810124
:10069C0003EBC10191F86A01704701F07F01013150
:1006AC0001EB810103EBC1018878704708B5D0F8E4
:1006BC00C00200F07EFDFFF7FDFE08BD08B5D0F8C6
:1006CC00C00200F013FFFFF7F5FE08BD08B5D0F827
:1006DC00C00200F0E0FEFFF7EDFE08BD08B5D0F853
:1006EC00C00200F0FAFE08BD00487047AC110020B3
:1006FC007047704738B512F4804F44D00468B4F892
:10070C0050309BB291F800C003EBCC03023304EBE6
:10071C004303B3F80044C4F309048B69A34228D300
:10072C001B1B8B618B697BB9056835F82C309BB230
:10073C0023F4804323F0700383F4005343F4004309
:10074C0043F0800325F82C3012F0400F0ED00268D5
:10075C000D7832F825309BB223F4E04323F070037C
:10076C0043F4004343F0C00322F8253024B920465B
:10077C0038BD00238B61D5E723460A894969006897
:10078C0001F036FFF3E70468B4F850309BB291F8EF
:10079C0000C003EBCC03063304EB4303B3F8004473
:1007AC00C4F309048B69A3422FD31B1B8B618B6988
:1007BC007BB9056835F82C309BB223F4804323F0C9
:1007CC00700383F4005343F4004343F0800325F893
:1007DC002C3012F0400F0FD1026891F800C032F8A3
:1007EC002C309BB223F4E04323F0700343F400431A
:1007FC0043F0C00322F82C30002CB8D023464A8991
:10080C004969006801F0F4FEB1E700238B61CEE783
:10081C0070B586B0002800F08580044690F8A932A7
:10082C00EBB1032384F8A932206800F02AFF254697
:10083C0055F8106BEC460FCDACE80F002B68CCF8DC
:10084C000030231D0ECB304600F00BFF054658B18F
:10085C00022384F8A9320125284606B070BD80F821
:10086C00A832FFF731FEDCE70021206800F013FF0F
:10087C002B461AE05A1C02EB820104EBC101012049
:10088C00487002EB820104F8313003EB830104EB76
:10089C00C101CB8602EB820C04EBCC0C00208CF853
:1008AC0003008863C8630864D3B261688B42E1D3E8
:1008BC0016E005EB850304EBC303002283F86921E2
:1008CC0083F8685183F86B21C3F87821C3F87C2135
:1008DC0005EB850304EBC303C3F880210135EDB2AE
:1008EC00A942E6D8254655F8106BEC460FCDACE87E
:1008FC000F002B68CCF80030231D0ECB304600F0D7
:10090C00CCFE054620B1022384F8A9320125A3E7C9
:10091C00002384F82430012384F8A932206801F0E4
:10092C00F2F999E7012597E738B590F8A832012B31
:10093C0011D00446012580F8A852006800F098FEFA
:10094C0029462046FFF7D5FE206801F0DAF9002091
:10095C0084F8A80238BD0220FCE770B505460C46A9
:10096C00164612F0400F00F00D810268B2F85030BC
:10097C009BB2097803EBC103023302EB4303B3F8D8
:10098C000024C2F30902A369934252D99B1AA361B2
:10099C00A369002B6AD16378002B4DD12B68B3F877
:1009AC00502092B2134403EB0111B1F804349BB202
:1009BC0023F4F8439BB2A1F80434B1F804346FEA81
:1009CC0043436FEA53439BB2A1F804342B6862781B
:1009DC00002A3ED1B3F8502092B21344227803EB94
:1009EC000213B3F80C2492B222F4F84292B2A3F898
:1009FC000C24B3F80C246FEA42426FEA524292B2D2
:100A0C00A3F80C2421782846FFF792FD16F4804FAA
:100A1C0041D02A68217832F821309BB223F4E0438C
:100A2C0023F0700343F4404343F0800322F8213059
:100A3C0031E00023A361ABE7012BC7D12B68B3F8DE
:100A4C00502092B2134403EB01110023A1F804349B
:100A5C00BCE7012AD6D1B3F8502092B213442278C5
:100A6C0003EB02130022A3F80C24CBE716F4804FFF
:100A7C000DD0286830F821309BB223F4E04323F0EA
:100A8C00700343F4404343F0800320F8213094F882
:100A9C002430012B12D02A68217832F821309BB2F5
:100AAC0023F4E04323F0400383F0300343F400438A
:100ABC0043F0800322F82130002070BD6369134499
:100ACC006361E3691344E361216A236999421FD38B
:100ADC00C91A21626278002A3FD12A68B2F85010F4
:100AEC0089B20A44217802EB0112EBB9B2F8041472
:100AFC0089B221F4F84189B2A2F80414B2F80414B2
:100B0C006FEA41416FEA514189B2A2F8041426E020
:100B1C0021B9002384F824301346DBE7002384F842
:100B2C00243023620B46D5E73E2B09D8590813F025
:100B3C00010F00D00131890289B2A2F804140EE031
:100B4C00590913F01F0F00D101396FEAC1616FEA27
:100B5C00514189B2A2F8041401E0012A06D09BB2DB
:100B6C0022896169286801F0D6F894E72A68B2F8FE
:100B7C00501089B20A44217802EB011299B2A2F802
:100B8C000414ECE70268B2F850309BB2097803EB1E
:100B9C00C103063302EB4303B3F80024C2F309028A
:100BAC00A369934253D39B1AA361A369002B6BD106
:100BBC006378002B4ED12B68B3F8502092B21344BB
:100BCC0003EB0111B1F804349BB223F4F8439BB24C
:100BDC00A1F80434B1F804346FEA43436FEA534389
:100BEC009BB2A1F804342B686278002A3FD1B3F889
:100BFC00502092B21344227803EB0213B3F80C2466
:100C0C0092B222F4F84292B2A3F80C24B3F80C245A
:100C1C006FEA42426FEA524292B2A3F80C24217856
:100C2C002846FFF785FC16F4804F7FF434AF2A6812
:100C3C00217832F821309BB223F4E04323F0700387
:100C4C0043F4404343F0800322F8213023E7002390
:100C5C00A361AAE7012BC6D12B68B3F8502092B23E
:100C6C00134403EB01110023A1F80434BBE7012A60
:100C7C00D5D1B3F8502092B21344227803EB02136F
:100C8C000022A3F80C24CAE716F4804F0DD1286873
:100C9C0030F821309BB223F4E04323F0700343F48B
:100CAC00404343F0800320F8213094F82430012B8A
:100CBC007FF4F1AE636913446361E3691344E36148
:100CCC00216A236999421FD3C91A21622A68617863
:100CDC0000293ED1B2F8501089B20A44217802EBB7
:100CEC000112EBB9B2F80C1489B221F4F84189B2B3
:100CFC00A2F80C14B2F80C146FEA41416FEA51419E
:100D0C0089B2A2F80C1426E021B9002384F824300F
:100D1C001346DBE70023236284F824300B46D5E727
:100D2C003E2B09D8590813F0010F00D0013189026C
:100D3C0089B2A2F80C140EE0590913F01F0F00D160
:100D4C0001396FEAC1616FEA514189B2A2F80C1402
:100D5C0001E0012906D09BB262896169286800F024
:100D6C00DAFF98E6B2F8501089B20A44217802EB07
:100D7C00011299B2A2F80C14EDE72DE9F0410546E9
:100D8C002868B0F8443013F4004F00F00F82B0F82C
:100D9C004440A3B214F00F0440F0D88013F0100FAD
:100DAC0061D003889AB213F4006F40F0938012F470
:100DBC00004FE5D0038823F070031B051B0D43F097
:100DCC00800303802868B0F850309BB295F86821F6
:100DDC0003EBC203063300EB4303B3F80034C3F355
:100DEC000903C5F884318BB1D5F87C1171B1B5F814
:100DFC006E2101F0FDFBD5F88421D5F87C3113442C
:100E0C00C5F87C3100212846FFF786FB2B681A8831
:100E1C0012F4006FB4D1B3F8502092B21344D5F849
:100E2C007821002A79D1B3F80C2492B222F4F8423A
:100E3C0092B2A3F80C24B3F80C246FEA42426FEA86
:100E4C00524292B2A3F80C242A6813889BB223F462
:100E5C00804323F0700383F4405343F4004343F086
:100E6C00800313808CE703889BB223F4E14323F0C7
:100E7C0070036FEA43436FEA53439BB203802A68C3
:100E8C00B2F850309BB295F8281003EBC103023333
:100E9C0002EB4303B3F80034C3F309036B64EA6B4E
:100EAC001344EB6300212846FFF742FB95F82430EE
:100EBC00002B3FF465AF2B6C002B7FF461AF95F8E2
:100ECC0024302A6843F08003A2F84C30002385F8C4
:100EDC00243055E7B0F850309BB295F8682103EBFD
:100EEC00C203063300EB4303B3F80034C3F3090326
:100EFC00C5F88431B5F86E2105F52C7101F078FB3D
:100F0C002A68138823F070031B051B0D43F0800324
:100F1C0013802846FFF7F8FA32E73E2A09D8510821
:100F2C0012F0010F00D001318A0292B2A3F80C2406
:100F3C008AE7510912F01F0F00D101396FEAC16223
:100F4C006FEA524292B2A3F80C247DE730F82430B9
:100F5C009EB213F4004F4FD116F0800F3FF410AF38
:100F6C00621C02EB820105EBC101286830F82430C9
:100F7C009BB223F4E14323F070036FEA43436FEA1F
:100F8C0053439BB220F82430CB78032B07D033B1DA
:100F9C00022B40F0068116F4807F40F00281286815
:100FAC00B0F850309BB2621C02EB820215F8326032
:100FBC0003EBC603023300EB4303B3F80034C3F373
:100FCC00090304EB840205EBC202126C9A4240F254
:100FDC00D48004EB840705EBC707D21A3A6404EB00
:100FEC00840205EBC202126C002A40F0CD8031461F
:100FFC002846FFF79DFAC3E630F8243023F070033F
:10100C001B051B0D43F0800320F8243004EB8401F6
:10101C00C90001F5B47105EB010804EB840305EB81
:10102C00C30393F87431002B42D12868B0F85030C8
:10103C009BB204EB840205EBC20292F8682103EB2D
:10104C00C203063300EB4303B3F80074C7F309077C
:10105C0017BB04EB840305EBC303D3F884213A4498
:10106C00C3F88421D3F87C213A44C3F87C21D3F80B
:10107C0080313BB104EB840305EBC303D3F8783127
:10108C009F4275D204EB840305EBC30393F86811FC
:10109C002846FFF741FA5FE704EB840105EBC10139
:1010AC003B46B1F86E21D1F87C1101F0A1FAD0E7E2
:1010BC0004EB840305EBC30393F86B31022B35D09F
:1010CC00296804EB840205EBC20292F8680131F83E
:1010DC0020309BB223F4E04323F0700343F400432D
:1010EC0043F0C00321F82030286892F8682130F8CA
:1010FC00223013F4804F20D0B0F850309BB203EB69
:10110C00C203023300EB4303B3F80074C7F30907BF
:10111C00002F9ED004EB840105EBC1013B46B1F8D6
:10112C007021D1F87C1101F063FA92E73246414606
:10113C002846FFF7DFFA07468BE7B0F850309BB232
:10114C0003EBC203063300EB4303B3F80074C7F39D
:10115C000907002F3FF47DAF04EB840105EBC101BF
:10116C003B46B1F87221D1F87C1101F041FA70E7DD
:10117C004146286800F0E3FDEEE604EB840205EB43
:10118C00C202002717642AE704EB840205EBC202B3
:10119C00D66B1E44D663546C2344536400F0CFFDCD
:1011AC00EEE532462846FFF7D8FBE9E50020BDE81E
:1011BC00F08190F8A832012B0DD010B50446012314
:1011CC0080F8A83280F82410006800F094FD00200C
:1011DC0084F8A80210BD0220704710B584B00446F4
:1011EC00006800F092FD10F4004F47D1206800F029
:1011FC008CFD10F4806F45D1206800F086FD10F452
:10120C00804F08D02268B2F844309BB223F480435C
:10121C009BB2A2F84430206800F077FD10F4005F18
:10122C0008D02268B2F844309BB223F400539BB22E
:10123C00A2F84430206800F068FD10F4805F32D1D1
:10124C00206800F062FD10F4006F78D1206800F087
:10125C005CFD10F4007F40F09D80206800F055FD8F
:10126C0010F4807F08D02268B2F844309BB223F48B
:10127C0080739BB2A2F8443004B010BD2046FFF737
:10128C007CFDB3E72268B2F844309BB223F4806350
:10129C009BB2A2F844302046FFF75BF900212046B0
:1012AC00FFF787FFA8E72268B2F840309BB223F023
:1012BC0004039BB2A2F840302268B2F840309BB2D3
:1012CC0023F008039BB2A2F840302046FFF764F9E4
:1012DC002268B2F844309BB223F480539BB2A2F83C
:1012EC004430ADE7226832F8231004AA02EB430223
:1012FC0022F8101C0133DBB2072BF3D92268B2F8A9
:10130C0040309BB243F00103A2F840302268B2F89F
:10131C0040309BB223F001039BB2A2F8403023680B
:10132C00B3F8442012F4806FF9D0B3F8442092B291
:10133C0022F4806292B2A3F8442000230BE0002335
:10134C00DAE7226804A901EB430131F8101C22F8FA
:10135C0023100133DBB2072BF3D92268B2F84030EB
:10136C009BB243F00803A2F840302268B2F8443034
:10137C009BB223F400639BB2A2F844302268B2F80B
:10138C0040309BB243F00403A2F840302046FFF7F4
:10139C00F3F85BE72268B2F844309BB223F4007395
:1013AC009BB2A2F844302046FFF7CDF855E710B5B4
:1013BC0004468C4611F0800F2AD101F0070000EB97
:1013CC008001C90001F5B47E04EB0E0100EB800036
:1013DC0004EBC0004FF0000E80F869E10CF0070C34
:1013EC0081F800C00A61CB704A780AB1A1F80EC02E
:1013FC00022B19D094F8A832012B18D0012384F8B1
:10140C00A832206800F05AF9002084F8A80210BD18
:10141C0001F00700013000EB800104EBC1014FF03B
:10142C00010E81F801E0D9E700230B71E2E70220FD
:10143C00EDE710B504460B4611F0800F1FD101F0FB
:10144C00070202EB8201C90001F5B471014402EB01
:10145C00820200EBC202002082F8690103F007034C
:10146C000B7094F8A832012B13D0012384F8A83206
:10147C00206800F0DFFA002084F8A80210BD01F00B
:10148C000702013202EB820100EBC101012048701E
:10149C00E4E70220F2E710B501F0070404EB840145
:1014AC00C90001F5B471014404EB840C00EBCC0CC5
:1014BC00CCF87C21CCF880310023CCF884318CF82A
:1014CC0069318CF8684124B9006800F038FC0020C0
:1014DC0010BD006800F033FCF9E701F0070101EBE7
:1014EC00810100EBC101D1F88401704710B501F006
:1014FC00070404F1010C0CEB8C0100EBC10104EBB3
:10150C00840E00EBCE0ECEF83C20CEF840300122FB
:10151C008EF84C20CEF848300023CEF844304A7078
:10152C000CEB8C0C00F83C4024B9006800F007FC74
:10153C00002010BD006800F002FCF9E738B501F09E
:10154C0007054268954231D804460B4611F0800FCE
:10155C001ED101EB8101C90001F5B471014403EB0B
:10156C00830300EBC303002283F8692101238B70F2
:10157C000D7094F8A832012B1AD0012384F8A832EC
:10158C00206800F042FB5DB1002084F8A80238BD51
:10159C006B1C03EB830100EBC10101224A70E5E7F0
:1015AC0004F52C71206800F0B4FBEDE70120EEE7A8
:1015BC000220ECE70B4601F00F014268914230D853
:1015CC0010B5044613F0800F21D103F0070202EB93
:1015DC008201C90001F5B471014402EB820200EBF7
:1015EC00C202002082F8690100228A7003F007030E
:1015FC000B7094F8A832012B15D0012384F8A83273
:10160C00206800F027FB002084F8A80210BD03F02E
:10161C000702013202EB820100EBC101012048708C
:10162C00E2E7012070470220F0E711F0800F0BD0A9
:10163C0001F00701013101EB810100EBC10152B94D
:10164C000A73CB800020704701EB8101C90001F5C2
:10165C00B4710144F3E701220A730B811B0C4B811B
:10166C00F0E784B001A880E80E00002004B07047B9
:10167C0003460020A3F844004FF43F42A3F8402057
:10168C007047B0F8403023F47C535B045B0CA0F83B
:10169C004030002070470020704784B0844601A879
:1016AC0080E80E000123ACF840300020ACF840007C
:1016BC00ACF84400ACF8500004B0704710B50346C9
:1016CC0091F800C030F82C2092B222F4EC4222F0B7
:1016DC00700292B2C878032861D8DFE800F0555C3C
:1016EC000258002048F2800E42EA0E0223F82C2009
:1016FC0091F800C033F82C2092B222F4E04222F090
:10170C0070024CEA020242EA0E0223F82C200A7BF9
:10171C00002A40F0C4804A78002A51D0B3F85020F7
:10172C0092B21A440C7802EB0412B1F806C04FEADC
:10173C005C0C4FEA4C0CA2F800C40C7833F8242053
:10174C0012F0400F0CD033F8242092B222F4E04275
:10175C0022F0700242F4004242F0C00223F824202E
:10176C00CA78012A1DD0097833F8212092B222F4CC
:10177C00E04222F0400282F0200242F4004242F0A9
:10178C00800223F821206AE042F40072AAE742F4B6
:10179C00C0620020A6E742F480620020A2E701208C
:1017AC00A0E7097833F8212092B222F4E04222F02B
:1017BC00400242F4004242F0800223F821204EE025
:1017CC00B3F8502092B21A440C7802EB0412B1F820
:1017DC0006C04FEA5C0C4FEA4C0CA2F808C4B3F8F4
:1017EC00502092B21A440C7802EB04120C69BCBB68
:1017FC00B2F80CC41FFA8CFC2CF4F84C1FFA8CFCBD
:10180C00A2F80CC4B2F80CC46FEA4C4C6FEA5C4CF6
:10181C001FFA8CFCA2F80CC40C7833F8242012F4B8
:10182C00804F0CD033F8242092B222F4E04222F004
:10183C00700242F4404242F0800223F824200978DE
:10184C0033F8212092B222F4804222F0700282F40A
:10185C00405242F4004242F0800223F8212010BD95
:10186C003E2C0DD84FEA540C14F0010F01D00CF1A2
:10187C00010C4FEA8C2C1FFA8CFCA2F80CC4CBE7A1
:10188C004FEA541C14F01F0F01D10CF1FF3C6FEA0E
:10189C00CC646FEA5444A4B2A2F80C44BCE791F8AF
:1018AC0000C033F82C2092B222F4E04222F07002F5
:1018BC0042F4014242F0800223F82C20B3F850206D
:1018CC0092B21A4491F800C002EB0C12B1F808C0A5
:1018DC004FEA5C0C4FEA4C0CA2F800C4B3F8502051
:1018EC0092B21A4491F800C002EB0C12B1F80AC083
:1018FC004FEA5C0C4FEA4C0CA2F808C44A78002A58
:10190C0041D10C7833F8242012F4804F0CD033F8EA
:10191C00242092B222F4E04222F0700242F44042BF
:10192C0042F0800223F824200C7833F8242012F0A3
:10193C00400F0CD033F8242092B222F4E04222F073
:10194C00700242F4004242F0C00223F8242091F8C5
:10195C0000C033F82C2092B222F4804222F07002A4
:10196C0082F4405248F28004224323F82C20097858
:10197C0033F8212092B222F4E04222F040022243BA
:10198C0023F821206BE70C7833F8242012F4804FD5
:10199C000CD033F8242092B222F4E04222F07002F0
:1019AC0042F4404242F0800223F824200C7833F8B1
:1019BC00242012F0400F0CD033F8242092B222F4E1
:1019CC00E04222F0700242F4004242F0C00223F8DE
:1019DC002420CA78012A1ED00C7833F8242092B225
:1019EC0022F4E04222F0400282F0200242F4004253
:1019FC0042F0800223F82420097833F8212092B297
:101A0C0022F4804222F0700242F4004242F0800242
:101A1C0023F8212023E70C7833F8242092B222F407
:101A2C00E04222F0400242F4004242F0800223F8ED
:101A3C002420E1E70B7B002B46D14B7813B30A78BB
:101A4C0030F8223013F0400F0CD030F822309BB21B
:101A5C0023F4E04323F0700343F4004343F0C0034A
:101A6C0020F822300A7830F822309BB223F4E0437D
:101A7C0023F0400343F4004343F0800320F822306A
:101A8C00002070470A7830F8223013F4804F0CD0C5
:101A9C0030F822309BB223F4E04323F0700343F47C
:101AAC00404343F0800320F822300A7830F822308B
:101ABC009BB223F4804323F0700343F4004343F0C0
:101ACC00800320F82230DBE74B78002B4ED10A78CC
:101ADC0030F8223013F4804F0CD030F822309BB207
:101AEC0023F4E04323F0700343F4404343F08003BA
:101AFC0020F822300A7830F8223013F0400F0CD046
:101B0C0030F822309BB223F4E04323F0700343F40B
:101B1C00004343F0C00320F822300A7830F822301A
:101B2C009BB223F4E04323F0700343F4004343F0EF
:101B3C00C00320F822300B7830F8232092B222F424
:101B4C00804222F0700248F2800C42EA0C0220F82B
:101B5C0023200A7830F822309BB223F4E04323F0A0
:101B6C00400343EA0C0320F8223089E70A7830F866
:101B7C00223013F4804F0CD030F822309BB223F477
:101B8C00E04323F0700343F4404343F0800320F818
:101B9C0022300A7830F8223013F0400F0CD030F895
:101BAC0022309BB223F4E04323F0700343F4004350
:101BBC0043F0C00320F822300A7830F822309BB270
:101BCC0023F4E04323F0700343F4404343F08003D9
:101BDC0020F822300B7830F8232092B222F4E04225
:101BEC0022F0400248F2800C42EA0C0220F823203A
:101BFC000A7830F822309BB223F4804323F0700330
:101C0C0043EA0C0320F822303AE74B788BB10A7880
:101C1C0030F822309BB223F4E04323F0400383F0EE
:101C2C00100343F4004343F0800320F822300020DB
:101C3C0070470A7830F822309BB223F4804323F0AB
:101C4C00700383F4805343F4004343F0800320F883
:101C5C002230ECE70B7B002B4BD14B7833B30A785B
:101C6C0030F8223013F0400F0CD030F822309BB2F9
:101C7C0023F4E04323F0700343F4004343F0C00328
:101C8C0020F82230CB78012B33D00A7830F8223070
:101C9C009BB223F4E04323F0400383F0200343F48E
:101CAC00004343F0800320F8223022E00A7830F819
:101CBC00223013F4804F0CD030F822309BB223F436
:101CCC00E04323F0700343F4404343F0800320F8D7
:101CDC0022300A7830F822309BB223F4804323F070
:101CEC00700383F4405343F4004343F0800320F823
:101CFC0022300020704711B98023A0F84C3000200E
:101D0C0070470020704700207047B0F8440080B244
:101D1C0070470020704710B45C1C640800EB420252
:101D2C0002F5806207E00B78487843EA002322F83A
:101D3C00043B0231013C002CF5D110BC704770B54E
:101D4C0005460C464B78012B37D00A7B002A40F015
:101D5C0026838B690A69934240F204839B1A8B6138
:101D6C00B5F850309BB22B44217803EB0113002AB9
:101D7C0040F0FC82B3F80C2492B222F4F84292B2F6
:101D8C00A3F80C24B3F80C246FEA42426FEA5242D7
:101D9C0092B2A3F80C24227835F822309BB223F4AB
:101DAC00804323F0700383F4405343F4004343F027
:101DBC00800325F82230002070BD8E690A69964296
:101DCC0000D91646237B002B39D0E378022B58D050
:101DDC00227835F822309BB223F4E04323F07003D1
:101DEC0043F4014343F0800325F82230236A9B1B04
:101DFC002362237835F8232012F0400F00F026825E
:101E0C006278002A40F0CA81B5F8502092B22A4478
:101E1C0002EB0313002E40F0A881B3F80C2492B20D
:101E2C0022F4F84292B2A3F80C24B3F80C246FEA13
:101E3C0042426FEA524292B2A3F80C24B0E1B6B21D
:101E4C003346E28861692846FFF765FFB5F85030E4
:101E5C009BB22B44227803EB0213A3F80464227880
:101E6C0035F822309BB223F4E04323F0400383F097
:101E7C00300343F4004343F0800325F82230002064
:101E8C009AE7236A9A4280F05281227835F8223000
:101E9C009BB223F4E04323F0700343F4014343F07B
:101EAC00800325F82230236A9B1B2362237835F8A4
:101EBC00232012F0400F00F09D8062788ABBB5F8A9
:101ECC00502092B22A4402EB03138EB9B3F80C24BF
:101EDC0092B222F4F84292B2A3F80C24B3F80C2478
:101EEC006FEA42426FEA524292B2A3F80C241AE013
:101EFC003E2E09D8720816F0010F00D00132920262
:101F0C0092B2A3F80C240EE0720916F01F0F00D148
:101F1C00013A6FEAC2626FEA524292B2A3F80C2401
:101F2C0001E0012A2BD0B3B2628961692846FFF720
:101F3C00F2FE636933446361236A2269934228D9B0
:101F4C009B1B23626378002B40D1B5F850309BB2B9
:101F5C002B44227803EB0213FEB9B3F8042492B29B
:101F6C0022F4F84292B2A3F80424B3F804246FEAE2
:101F7C0042426FEA524292B2A3F8042428E0B5F828
:101F8C00502092B22A4402EB0313B2B2A3F80C24F1
:101F9C00C9E7002222621E46D4E73E2E09D87208F9
:101FAC0016F0010F00D00132920292B2A3F8042471
:101FBC000EE0720916F01F0F00D1013A6FEAC262EF
:101FCC006FEA524292B2A3F8042401E0012B06D02E
:101FDC00B3B2228961692846FFF79DFE3FE7B5F849
:101FEC0050309BB22B44227803EB0213B2B2A3F80D
:101FFC000424EDE762788ABBB5F8502092B22A44EB
:10200C0002EB03138EB9B3F8042492B222F4F84213
:10201C0092B2A3F80424B3F804246FEA42426FEAA4
:10202C00524292B2A3F804241AE03E2E09D8720848
:10203C0016F0010F00D00132920292B2A3F80424E0
:10204C000EE0720916F01F0F00D1013A6FEAC2625E
:10205C006FEA524292B2A3F8042401E0012A2BD079
:10206C00B3B2228961692846FFF755FE6369334490
:10207C006361236A2269934228D99B1B236263788C
:10208C00002B40D1B5F850309BB22B44227803EB97
:10209C000213FEB9B3F80C2492B222F4F84292B2B5
:1020AC00A3F80C24B3F80C246FEA42426FEA5242B4
:1020BC0092B2A3F80C2428E0B5F8502092B22A442E
:1020CC0002EB0313B2B2A3F80424C9E70022226284
:1020DC001E46D4E73E2E09D8720816F0010F00D028
:1020EC000132920292B2A3F80C240EE0720916F09F
:1020FC001F0F00D1013A6FEAC2626FEA524292B2EC
:10210C00A3F80C2401E0012B06D0B3B262896169FB
:10211C002846FFF700FEA2E6B5F850309BB22B44E0
:10212C00227803EB0213B2B2A3F80C24EDE721786A
:10213C0035F8212092B222F4E24222F0700242F4ED
:10214C00004242F0800225F82120B5F8502092B2CE
:10215C002A44217802EB01129BB2A2F804342289A2
:10216C0061692846FFF7D7FD79E63E2E09D872083B
:10217C0016F0010F00D00132920292B2A3F80C2497
:10218C000EE0720916F01F0F00D1013A6FEAC2621D
:10219C006FEA524292B2A3F80C2401E0012A26D035
:1021AC00B3B2628961692846FFF7B5FD63693344B0
:1021BC006361236A2269934223D99B1B2362002EFD
:1021CC003FF44DAE63786BBBB5F850309BB22B44EB
:1021DC00227803EB02133E2E17D8720816F0010F6B
:1021EC0000D00132920292B2A3F804241CE0B5F89C
:1021FC00502092B22A4402EB0313B2B2A3F80C247F
:10220C00CEE7002222621E46D9E7720916F01F0F94
:10221C0000D1013A6FEAC2626FEA524292B2A3F85D
:10222C00042401E0012B06D0B3B22289616928464F
:10223C00FFF771FD13E6B5F850309BB22B442278B2
:10224C0003EB0213B2B2A3F80424EDE762788ABB65
:10225C00B5F8502092B22A4402EB03138EB9B3F8AE
:10226C00042492B222F4F84292B2A3F80424B3F8F4
:10227C0004246FEA42426FEA524292B2A3F8042459
:10228C001AE03E2E09D8720816F0010F00D0013268
:10229C00920292B2A3F804240EE0720916F01F0FFA
:1022AC0000D1013A6FEAC2626FEA524292B2A3F8CD
:1022BC00042401E0012A26D0B3B2228961692846A0
:1022CC00FFF729FD636933446361236A22699342F2
:1022DC0023D99B1B2362002E3FF4C1AD63786BBBEB
:1022EC00B5F850309BB22B44227803EB02133E2EF0
:1022FC0017D8720816F0010F00D00132920292B278
:10230C00A3F80C241CE0B5F8502092B22A4402EB3E
:10231C000313B2B2A3F80424CEE7002222621E46B5
:10232C00D9E7720916F01F0F00D1013A6FEAC262A9
:10233C006FEA524292B2A3F80C2401E0012B06D0B2
:10234C00B3B2628961692846FFF7E5FC87E5B5F809
:10235C0050309BB22B44227803EB0213B2B2A3F899
:10236C000C24EDE700228A611A46F9E43E2A09D8CA
:10237C00510812F0010F00D00131890289B2A3F883
:10238C000C1408E5510912F01F0F00D101396FEA46
:10239C00C1616FEA514189B2A3F80C14FBE4CA780D
:1023AC00022A45D0012A40F0208189692269914294
:1023BC0040F2D480891AA161D3B9B5F850309BB2E0
:1023CC002B44217803EB0113002A40F0CB80B3F8A7
:1023DC00041489B221F4F84189B2A3F80414B3F8B7
:1023EC0004146FEA41416FEA514189B2A3F8041415
:1023FC006378002B40F0EA80B5F850309BB22B4448
:10240C00217803EB0113002A40F0C580B3F80C24AB
:10241C0092B222F4F84292B2A3F80C24B3F80C2432
:10242C006FEA42426FEA524292B2A3F80C24B2E431
:10243C00CBB9B0F850309BB203440A7803EB0213CB
:10244C000A6972BBB3F8042492B222F4F84292B235
:10245C00A3F80424B3F804246FEA42426FEA524210
:10246C0092B2A3F804246378002B4CD1B5F8503009
:10247C009BB22B44227803EB0213226952BBB3F8B4
:10248C000C2492B222F4F84292B2A3F80C24B3F8C2
:10249C000C246FEA42426FEA524292B2A3F80C2427
:1024AC0033E03E2A09D8510812F0010F00D0013157
:1024BC008A0292B2A3F80424D5E7510912F01F0F37
:1024CC0000D101396FEAC1626FEA524292B2A3F8AD
:1024DC000424C8E73E2A09D8510812F0010F00D095
:1024EC0001318A0292B2A3F80C240EE0510912F0C9
:1024FC001F0F00D101396FEAC1626FEA524292B2EA
:10250C00A3F80C2401E0012B1DD0E369002B3FF450
:10251C0042AC227835F8221044F2400303EA010061
:10252C008B4302D000287FF436AC35F822309BB2B6
:10253C0023F4E04323F0700343F4004343F0C0035F
:10254C0025F8223027E4B5F850309BB22B44227882
:10255C0003EB0213228AA3F80C24D6E70022A26113
:10256C000A4629E73E2A09D8510812F0010F00D07B
:10257C000131890289B2A3F8041439E7510912F028
:10258C001F0F00D101396FEAC1616FEA514189B265
:10259C00A3F804142CE73E2A0AD8510812F0010FB4
:1025AC0000D001318A0292B2A3F80C24FFF7F3BBDE
:1025BC00510912F01F0F00D101396FEAC1626FEAA5
:1025CC00524292B2A3F80C24FFF7E5BB012B7FF427
:1025DC00E2ABB5F850309BB22B44217803EB0113DE
:1025EC0092B2A3F80C24FFF7D6BB0120FFF7E4BB93
:1025FC0010B45C0800EB420000F5806007E030F896
:10260C00042B0A70C2F307224A700231013C002CE1
:10261C00F5D113F0010F01D003880B7010BC70477B
:10262C0010B504460E4B18784FF47A73B3FBF0F3E5
:10263C000C4A1068B0FBF3F000F040FC68B90F2CAA
:10264C0001D901200AE0002221464FF0FF3000F0B2
:10265C00EFFB054B1C60002000E0012010BD00BF0B
:10266C0060000020680000206400002008B5074AC4
:10267C00136843F010031360032000F0C7FB0F2016
:10268C00FFF7CEFFFDF7FEFD002008BD0020024045
:10269C00034A1168034B1B780B441360704700BF4F
:1026AC00CC13002060000020014B1868704700BF5D
:1026BC00CC13002038B50446FFF7F6FF0546B4F1FD
:1026CC00FF3F02D0044B1B781C44FFF7EDFF401B6F
:1026DC00A042FAD338BD00BF6000002082B0084B86
:1026EC001B68084AA2FB03235B0A00FB03F301935C
:1026FC0000BF019B5A1E0192002BF9D102B070470A
:10270C0068000020D34D6210002800F0F18170B5F4
:10271C0082B00446036813F0010F2CD0994B5B6810
:10272C0003F00C03042B1DD0964B5B6803F00C03D9
:10273C00082B12D06368B3F5803F41D0002B55D1E4
:10274C0003F1804303F504331A6822F480321A60D3
:10275C001A6822F480221A6037E08A4B5B6813F403
:10276C00803FE7D0874B1B6813F4003F03D06368AE
:10277C00002B00F0BF81236813F0020F75D0814B42
:10278C005B6813F00C0F5FD07E4B5B6803F00C039F
:10279C00082B54D02369002B00F08A807A4B01223D
:1027AC001A60FFF781FF0546764B1B6813F0020F8A
:1027BC0075D1FFF779FF401B0228F5D903209EE164
:1027CC00704A136843F480331360636843B3FFF7B4
:1027DC006BFF05466B4B1B6813F4003FCBD1FFF727
:1027EC0063FF401B6428F5D9032088E1B3F5A02FC3
:1027FC0009D0644B1A6822F480321A601A6822F4E9
:10280C0080221A60E1E703F18043A3F53C331A6898
:10281C0042F480221A601A6842F480321A60D4E7BB
:10282C00FFF742FF0546574B1B6813F4003FA2D03D
:10283C00FFF73AFF401B6428F5D903205FE1514BA9
:10284C005B6813F4803FA5D14E4B1B6813F0020F4D
:10285C0003D02369012B40F04F814A4A136823F0BF
:10286C00F803616943EAC1031360236813F0080F8E
:10287C0033D0A369002B5CD0434B0122C3F88024D6
:10288C00FFF712FF05463F4B5B6A13F0020F21D195
:10289C00FFF70AFF401B0228F5D903202FE1394A24
:1028AC00136823F0F803616943EAC1031360DCE7A2
:1028BC00354B00221A60FFF7F7FE0546314B1B68BB
:1028CC0013F0020FD1D0FFF7EFFE401B0228F5D911
:1028DC00032014E10120FFF701FF236813F0040F1C
:1028EC0000F09680274BDB6913F0805F34D1254BC9
:1028FC00DA6942F08052DA61DB6903F080530193AC
:10290C00019B0125214B1B6813F4807F26D0E368C3
:10291C00012B3DD0002B53D103F1804303F504333D
:10292C001A6A22F001021A621A6A22F004021A626E
:10293C0033E0154B0022C3F88024FFF7B5FE0546A3
:10294C00104B5B6A13F0020FC7D0FFF7ADFE401BB4
:10295C000228F5D90320D2E00025D3E70B4A1368EF
:10296C0043F480731360FFF79FFE0646074B1B680A
:10297C0013F4807FCBD1FFF797FE801B6428F5D929
:10298C000320BCE0001002400000424200700040F6
:10299C005F4A136A43F001031362E36833B3FFF732
:1029AC0083FE06465A4B1B6A13F0020F2FD1FFF71A
:1029BC007BFE801B41F288339842F3D903209EE0C2
:1029CC00052B09D0524B1A6A22F001021A621A6ABC
:1029DC0022F004021A62E0E74D4B1A6A42F004023C
:1029EC001A621A6A42F001021A62D6E7FFF75CFE1D
:1029FC000646474B1B6A13F0020F08D0FFF754FE34
:102A0C00801B41F288339842F3D9032077E0E5B973
:102A1C00E369002B72D03E4A526802F00C02082A7D
:102A2C0056D0022B17D03B4B00221A66FFF73CFE08
:102A3C000446374B1B6813F0007F47D0FFF734FE7A
:102A4C00001B0228F5D9032059E0314AD36923F041
:102A5C008053D361DCE72F4B00221A66FFF724FE6C
:102A6C0005462B4B1B6813F0007F06D0FFF71CFEAE
:102A7C00401B0228F5D9032041E0236AB3F5803FBF
:102A8C001AD023494B6823F47413226A606A0243F8
:102A9C0013434B601F4B01221A66FFF705FE0446D9
:102AAC001B4B1B6813F0007F0ED1FFF7FDFD001BC5
:102ABC000228F5D9032022E0154A536823F4003389
:102ACC00A1680B435360DCE7002018E0002016E0FF
:102ADC00012B16D00E4B5B6803F48031226A9142B5
:102AEC0011D103F47013626A93420ED1002006E0F8
:102AFC0001207047012002E0012000E0002002B01C
:102B0C0070BD0120FBE70120F9E70120F7E700BFCA
:102B1C00001002400000424286B0174B0FCB0DF163
:102B2C00180C0CE90F0040F20123ADF80430134BE4
:102B3C005B6803F00C02082A02D0114806B07047FB
:102B4C00C3F3834218326A4412F8100C13F4803F1A
:102B5C000DD00A4B5B68C3F3404318336B4413F836
:102B6C00143C074A02FB00F0B0FBF3F0E6E7054B20
:102B7C0003FB00F0E2E700BF604D000800100240CC
:102B8C0000127A0000093D00002800F0A08070B50A
:102B9C000D460446524B1B6803F007038B420BD2C5
:102BAC004F4A136823F007030B431360136803F0B9
:102BBC0007038B4240F08D80236813F0020F17D06F
:102BCC0013F0040F04D0474A536843F4E063536096
:102BDC00236813F0080F04D0424A536843F460533F
:102BEC005360404A536823F0F003A1680B435360D1
:102BFC00236813F0010F31D06368012B20D0022B16
:102C0C0025D0384A126812F0020F64D035494A6850
:102C1C0022F0030213434B60FFF746FD0646314B8F
:102C2C005B6803F00C036268B3EB820F16D0FFF7FE
:102C3C003BFD801B41F288339842F0D9032045E0DC
:102C4C00284A126812F4003FE0D101203EE0254AE8
:102C5C00126812F0007FD9D1012037E0204B1B689D
:102C6C0003F00703AB420AD91D4A136823F007038C
:102C7C002B431360136803F00703AB422DD1236879
:102C8C0013F0040F06D0174A536823F4E063E1688D
:102C9C000B435360236813F0080F07D0114A536895
:102CAC0023F46053216943EAC1035360FFF734FFF7
:102CBC000C4B5B68C3F303130B4AD35CD8400B4B30
:102CCC0018600B4B1868FFF7ABFC002070BD01209F
:102CDC0070470120FAE70120F8E70120F6E700BF72
:102CEC000020024000100240744D000868000020D3
:102CFC006400002070B582B00446036813F0010F25
:102D0C0036D03F4BDB6913F0805F49D13C4BDA691D
:102D1C0042F08052DA61DB6903F080530193019B2E
:102D2C000125384B1B6813F4807F3BD0344B1B6A56
:102D3C0013F4407313D0626802F440729A420ED0BE
:102D4C002F4A136A23F440702F490126C1F84064BE
:102D5C000026C1F84064106213F0010F36D1284AE6
:102D6C00136A23F4407361680B431362002D3ED148
:102D7C00236813F0020F06D0214A536823F4404312
:102D8C00A1680B435360236813F0100F34D01C4A16
:102D9C00536823F48003E1680B43536000202CE05C
:102DAC000025BEE7174A136843F480731360FFF7DE
:102DBC007BFC0646134B1B6813F4807FB6D1FFF7E0
:102DCC0073FC801B6428F5D9032016E0FFF76CFC1C
:102DDC0006460B4B1B6A13F0020FC0D1FFF764FCC5
:102DEC00801B41F288339842F3D9032005E0D36964
:102DFC0023F08053D361BBE7002002B070BD00BF4D
:102E0C00001002400070004000004242074AD368A4
:102E1C0023F4E0631B041B0C000200F4E06003438A
:102E2C0043F0BF6343F40033D360704700ED00E020
:102E3C0000B5194BDB68C3F30223C3F1070CBCF1DB
:102E4C00040F28BF4FF0040C03F1040EBEF1060F63
:102E5C0018D9033B4FF0FF3E0EFA0CFC21EA0C0193
:102E6C0099400EFA03F322EA0303194300280BDB03
:102E7C000901C9B200F1604000F5614080F800130F
:102E8C005DF804FB0023E5E700F00F000901C9B26F
:102E9C00024B1954F4E700BF00ED00E014ED00E024
:102EAC00002807DB00F01F02400901239340024A6F
:102EBC0042F82030704700BF00E100E00138B0F16B
:102ECC00807F0BD24FF0E0235861054AF02182F845
:102EDC0023100020986107221A6170470120704767
:102EEC0000ED00E07047000008B590B10346D0F843
:102EFC00B40210B10020C3F8B40209B1C3F8B01287
:102F0C00012183F89C121A701846FDF74BFB002028
:102F1C0008BD054800F0BCFE044800F0B9FE0A20CC
:102F2C0000F0CEFE0220F3E7844D00088C4D000823
:102F3C0008B519B1C0F8B412002008BD054800F05E
:102F4C00A7FE054800F0A4FE0A2000F0B9FE0220FE
:102F5C00F3E700BF844D0008A44D000808B5FDF749
:102F6C0063FB002008BD08B5D0F8B4322BB11B6848
:102F7C00984700B908BD0220FCE70220FAE708B523
:102F8C00D0F8B4325B689847002008BD38B50446C9
:102F9C0000F52A75284600F035F90123C4F894325F
:102FAC00B4F8AE32C4F8983294F8A81201F01F03AA
:102FBC00012B0ED0022B11D02BB101F08001204639
:102FCC00FDF74DFB03E02946204600F0C9FA00202E
:102FDC0038BD2946204600F0F7FAF8E72946204686
:102FEC0000F022FBF3E738B504460D4691BB1346BF
:102FFC00D0F89422032A03D0052A24D0084633E0C3
:10300C00D0F86011D0F8642191420DD9891AC0F81A
:10301C0060118A4206D98AB21946204600F036FC65
:10302C00284621E092B2F7E7D0F8B4321B691BB105
:10303C0090F89C22032A04D0204600F02FFC28464E
:10304C0012E09847F8E70021C0F89412FDF707FB4F
:10305C00284609E0D0F8B4329B6933B190F89C2231
:10306C00032A04D19847002038BD0220FCE7022037
:10307C00FAE738B504460D46002953D11346D0F86B
:10308C009422022A0CD0042A00D01AB9802120469E
:10309C00FDF7E5FA94F8A032012B3ED0284638BD56
:1030AC00016A426A91421BD8C169B1FBF2F302FB7F
:1030BC0013132BB98A4203D8D0F8983299421CD3F7
:1030CC00D4F8B432DB681BB194F89C22032A21D0CB
:1030DC0080212046FDF7C3FA204600F0EAFBD9E731
:1030EC008A1A026292B2194600F0B9FB00231A4602
:1030FC0019462046FDF7EAFACCE70022114600F00B
:10310C00AEFB0021C4F898120B460A462046FDF788
:10311C00DDFABFE720469847DAE7002384F8A032AF
:10312C002846BCE7D0F8B4325B6933B190F89C22E6
:10313C00032A04D198470020B1E70220AFE7022010
:10314C00ADE770B50446402300221146FDF774FA32
:10315C000125C4F858514026C4F864613346002256
:10316C0080212046FDF768FAA561666284F89C52BE
:10317C000023C4F894326360C4F8A432D4F8B83293
:10318C002BB1D4F8B4325B6800212046984700205C
:10319C0070BD01740020704790F89C3280F89D320D
:1031AC00042380F89C320020704790F89C32042B4A
:1031BC0001D00020704790F89D3280F89C32F8E7DF
:1031CC0008B590F89C32032B01D0002008BDD0F834
:1031DC00B432DB69002BF8D09847F6E703460020A1
:1031EC0002E00130C0B201331A78002AF9D17047DD
:1031FC0008B54B88012B00D008BDC0F8A43200F0F4
:10320C004DFBF9E70B7803704B7843708B78CA78D9
:10321C0003EB022343800B794A7903EB022383806F
:10322C008B79CA7903EB0223C380704710B504462F
:10323C008021FDF714FA00212046FDF710FA10BD8D
:10324C0030B583B005460C460023ADF806304A88ED
:10325C00130A013B062B00F2A480DFE803F00418EC
:10326C002CA2A2869300D0F8B0321B680DF1060197
:10327C00007C9847BDF806201AB1E388002B40F07B
:10328C009480E388002B00F09A8003B030BD037C5F
:10329C0043B9D0F8B4329B6A0DF10600984702236B
:1032AC004370E7E7D0F8B432DB6A0DF106009847BB
:1032BC0002234370DEE7D2B2052A52D8DFE802F0CF
:1032CC0003101D2A3744D0F8B0325B6823B10DF1DE
:1032DC000601007C9847CDE72146FFF7A7FFD4E70E
:1032EC00D0F8B0329B6823B10DF10601007C9847F1
:1032FC00C0E72146FFF79AFFC7E7D0F8B032DB688A
:10330C0023B10DF10601007C9847B3E72146FFF786
:10331C008DFFBAE7D0F8B0321B6923B10DF106016D
:10332C00007C9847A6E72146FFF780FFADE7D0F871
:10333C00B0325B6923B10DF10601007C984799E727
:10334C002146FFF773FFA0E7D0F8B0329B6923B199
:10335C000DF10601007C98478CE72146FFF766FFCC
:10336C0093E72146FFF762FF8FE7037C33B9D0F870
:10337C00B4325B6B0DF1060098477BE72146FFF7F3
:10338C0055FF82E7037C43B9D0F8B4321B6B0DF1C7
:10339C0006009847072343706CE72146FFF746FF6A
:1033AC0073E72146FFF742FF6FE79A4228BF1A46A0
:1033BC00ADF806200146284600F044FA61E728469D
:1033CC0000F06CFA61E738B504468B88F3B9CB880A
:1033DC00E3B94B887F2B19D803F07F0590F89C320A
:1033EC00032B0CD080F89E522946FDF75FF920463E
:1033FC0000F054FA35B1022384F89C3209E0FFF74F
:10340C0015FF06E0012384F89C3202E02046FFF70A
:10341C000DFF38BD38B504460D468978284B197018
:10342C0001290ED890F89C32022B0ED0032B21D000
:10343C002946FFF7FBFE224B19782046FFF79FFD2C
:10344C0002E02946FFF7F2FE38BD81B1416003234B
:10345C0080F89C32FFF787FD022803D0204600F04D
:10346C001DFAF1E729462046FFF7E0FEECE700F0F5
:10347C0015FAE9E789B1436899421DD0D9B2FFF733
:10348C007EFD0F4B197861602046FFF76CFD02281A
:10349C000DD0204600F002FAD6E7022380F89C32C9
:1034AC004160FFF76CFD204600F0F8F9CCE72946A7
:1034BC002046FFF7BBFEC7E700F0F0F9C4E700BFFA
:1034CC00D013002008B5CB88012B0AD190F89C3280
:1034DC00022B09D9032B09D10122011D00F0B2F9ED
:1034EC0001E0FFF7A3FE08BD5BB213B9FFF79EFE28
:1034FC00F9E70146002341F8083F012200F0A2F948
:10350C00F1E708B590F89C32013B022B12D8CB881E
:10351C00022B0CD10123C360D0F8A4320BB10323CE
:10352C00C360022200F10C0100F08CF908BDFFF71A
:10353C007DFEFBE7FFF77AFEF8E708B590F89C32C2
:10354C00013B022B09D84B88012B00D008BD00236E
:10355C00C0F8A43200F0A2F9F8E7FFF767FEF5E730
:10356C0008B50B7803F06003202B05D0402B03D05B
:10357C0043B1FFF75BFE03E0D0F8B4329B68984789
:10358C00002008BD4B78092B1BD8DFE803F011177E
:10359C001A141A08051A0E0BFFF752FEF0E7FFF784
:1035AC0012FFEDE7FFF736FFEAE7FFF78BFFE7E7E0
:1035BC00FFF7A7FFE4E7FFF71BFEE1E7FFF7BDFF0F
:1035CC00DEE7FFF733FEDBE738B505460C460B7834
:1035DC0003F06003202B06D0402B04D01BB1FFF767
:1035EC0025FE002038BD95F89C32013B022B16D8E5
:1035FC002379012B0ED8D5F8B4329B682146284686
:10360C009847E388002BECD10028EAD1284600F03B
:10361C0045F9E6E721462846FFF708FEE1E7214693
:10362C002846FFF703FEDCE770B505468B880C785F
:10363C0004F06004202C07D0DAB2402C04D05CB12A
:10364C00FFF7F4FD002405E0D5F8B4329B6828465A
:10365C0098470024204670BD202C09D04E78012EAE
:10366C0033D0032E0AD0002E55D0FFF7DFFDF1E743
:10367C00D0F8B4329B6898470446EBE790F89C323C
:10368C00022B04D0032B11D0FFF7D0FDE2E70AB1D7
:10369C00802A03D12846FFF7C9FDDBE71146FCF76A
:1036AC00DEFF80212846FCF7DAFFD3E74B8823B9ED
:1036BC001AB1802A01D0CB881BB1284600F0EEF855
:1036CC00C8E71146FCF7CBFFF7E790F89C32022BCA
:1036DC0004D0032B11D0FFF7A9FDBBE70AB1802A58
:1036EC0003D12846FFF7A2FDB4E71146FCF7B7FF5C
:1036FC0080212846FCF7B3FFACE74B88002BA9D1FF
:10370C0012F07F0F03D1284600F0C8F8A2E711464B
:10371C00FCF7ADFFF7E790F89C02022806D00328CF
:10372C0029D02846FFF782FD344693E70AB1802A58
:10373C0013D113F0800F15D102F07F0202EB82023D
:10374C00910001F5A8712944043100230B60022279
:10375C00284600F077F834467CE72846FFF766FDEC
:10376C00344677E702F07F0202EB820291001031BF
:10377C0029440431E9E75BB2002B1FDB02F00F0098
:10378C0000EB800005EB8000D0F8580120B3002B33
:10379C0027DB02F07F0303EB83039C0004F5A87482
:1037AC002C4404340AB1802A24D100232360022241
:1037BC002146284600F046F834464BE702F00F004D
:1037CC0000EB800005EB800080690028DFD12846E3
:1037DC00FFF72CFD34463DE72846FFF727FD34461E
:1037EC0038E702F07F0303EB83039C0010342C4476
:1037FC000434D7E711462846FCF741FF10B10123EA
:10380C002360D4E700232360D1E7D0B170B50D4617
:10381C0016460446FFF7E2FC431C5B009BB2338068
:10382C002B7003236B70022307E001345A1CD2B2B5
:10383C00E8540233DBB20021A95420780028F4D1DB
:10384C0070BD704708B513460222C0F89422C361BC
:10385C0003620A460021FCF731FF002008BD08B5C1
:10386C0013460A460021FCF729FF002008BD08B5C5
:10387C0013460322C0F89422C0F85C31C0F86031C2
:10388C000A460021FCF722FF002008BD08B51346AC
:10389C000A460021FCF71AFF002008BD08B50423D6
:1038AC00C0F8943200231A461946FCF707FF002093
:1038BC0008BD08B50523C0F8943200231A461946F2
:1038CC00FCF704FF002008BD10B5D0F8B842D0F8C2
:1038DC00BC325BB194F80002FF2807D09B6894F8C7
:1038EC00012221469847FF2384F80032002010BDA6
:1038FC004323038000487047A40000204323038027
:10390C0000487047E80000204323038000487047BC
:10391C00380100200A230380004870472C01002046
:10392C0038B50446D0F8B852FCF7D8FEC5F80C02EE
:10393C00D4F8B8324BB1D4F8BC32DB6805F503715E
:10394C00D5F804029847002038BD0220FCE710B5DA
:10395C00D0F8B822D0F8C042F2B101EB810300EBF1
:10396C008303DB694BB101EB810C04EBCC04A46B3E
:10397C00B3FBF4FC04FB1C3323B10023C2F8143258
:10398C00002010BD01EB810300EB83030022DA6100
:10399C001346FCF793FEF3E70220F2E7F0B583B091
:1039AC0006460C46D0F8B87200238DF80730ADF8F7
:1039BC0004300B7813F0600527D0202D53D1CA8822
:1039CC00DAB113F0800F0CD0D0F8BC329B683946BA
:1039DC0060789847E28839463046FFF733FF002578
:1039EC0044E04B7887F800328B7987F80132CA882B
:1039FC003946FFF73CFF002538E0D0F8BC329B6815
:103A0C00002248789847002530E04F780A2F14D0D0
:103A1C000B2F20D01FB1FFF709FC022526E090F8F0
:103A2C009C32032B03D0FFF701FC02251EE002227F
:103A3C0001A9FFF707FF3D4618E090F89C32032BD5
:103A4C0003D0FFF7F3FB022510E001220DF1070173
:103A5C00FFF7F8FE0AE090F89C32032B06D0FFF734
:103A6C00E5FB022502E0FFF7E1FB0225284603B047
:103A7C00F0BD38B504468121FCF7E9FD0025E5626F
:103A8C0001212046FCF7E3FDC4F86C51822120464D
:103A9C00FCF7DDFD2564D4F8B8324BB1D4F8BC3258
:103AAC005B689847D4F8B802FCF722FEC4F8B85209
:103ABC00002038BD70B50446037CABBB4FF40073DB
:103ACC0002228121FCF7B8FD0125E5624FF4007359
:103ADC00022229462046FCF7AFFDC4F86C5108239E
:103AEC00032282212046FCF7A7FD012323644FF417
:103AFC000770FCF7F9FD0546C4F8B80268B3D4F8B2
:103B0C00BC321B6898470023C5F81432C5F818322C
:103B1C00267CCEB94FF40073D5F80422012120463F
:103B2C00FCF7D4FD304670BD402302228121FCF706
:103B3C0083FD0125E5624023022229462046FCF73D
:103B4C007BFDC4F86C51CAE74023D5F8042201214F
:103B5C002046FCF7BBFD0026E4E70126E2E719B19D
:103B6C00C0F8BC120020704702207047D0F8B83261
:103B7C00C3F80812C3F8102200207047D0F8B832EE
:103B8C00C3F8041200207047D0F8B822A2B108B5CF
:103B9C00D2F814320BB1012008BD0123C2F8143243
:103BAC00D2F810320363B2F81032D2F80822812115
:103BBC00FCF784FD0020EFE702207047D0F8B82214
:103BCC0092B108B5037C43B94FF40073D2F80422C8
:103BDC000121FCF77BFD002008BD4023D2F8042214
:103BEC000121FCF773FDF6E7022070470C480D49E4
:103BFC000D4A002302E0D458C4500433C4188C423C
:103C0C00F9D30A4A0A4C002301E013600432A242A1
:103C1C00FBD3FFF767F900F00FF8FCF701FB7047D7
:103C2C0000000020E00100205C4E0008E0010020B4
:103C3C00E4130020FEE7000070B500260C4D0D4C7F
:103C4C00641BA410A64209D101F050F800260A4DBD
:103C5C000A4C641BA410A64205D170BD55F8043B58
:103C6C0098470136EEE755F8043B98470136F2E7E2
:103C7C00544E0008544E0008544E0008584E00088C
:103C8C0003460244934200D1704703F8011BF9E745
:103C9C000FB40A4B13B51C6824B1A36913B92046A1
:103CAC0000F07AF805AB2046049AA168019300F065
:103CBC00CFF902B0BDE8104004B070477C01002081
:103CCC0038B5084B05461C6824B1A36913B92046C6
:103CDC0000F062F829462046A268BDE8384000F0A2
:103CEC007DBC00BF7C010020002310B50446C0E958
:103CFC000033C0E90433836081814366C2818361F0
:103D0C00194608225C30FFF7BBFF054B2462636247
:103D1C00044BA362044BE362044B236310BD00BF4E
:103D2C0099460008BB460008F346000817470008F0
:103D3C00014900F0AFB800BFE9490008682270B52E
:103D4C004D1E55430E4605F1740100F0E5F804468E
:103D5C0040B10021C0E900160C30A06005F16802EA
:103D6C00FFF78EFF204670BD014800F0B3B800BFCE
:103D7C00D2130020014800F0AEB800BFD2130020CF
:103D8C00014800F0A7B800BFD3130020014800F091
:103D9C00A2B800BFD313002010B50446FFF7F0FF04
:103DAC00A3691BB1BDE81040FFF7F0BFC4E91233A3
:103DBC002365134B134A1B68A262A34208BF01235D
:103DCC00204608BFA36100F01FF86060204600F099
:103DDC001BF8A060204600F017F800220421E060D8
:103DEC006068FFF781FF01220921A068FFF77CFFC3
:103DFC0002221221E068FFF777FF0123A361D1E7CC
:103E0C00BC4D00083D3D0008F8B50746FFF7ACFF78
:103E1C001E4B1E68B36913B93046FFF7BDFF483619
:103E2C00D6E90134013B03D533680BB33668F7E7A9
:103E3C00B4F90C50D5B9164B04F15800E360656623
:103E4C0000F047F8FFF796FF08222946C4E9015510
:103E5C00C4E904552560A56104F15C00FFF710FF6F
:103E6C00C4E90D55C4E912552046F8BD6834D9E7AC
:103E7C0004213846FFF762FF044630600028D5D194
:103E8C00FFF778FF0C233B60EEE700BFBC4D00084A
:103E9C000100FFFF2DE9F84306468846002700F194
:103EAC004804D4E90195B9F1010905D52468002C21
:103EBC00F7D13846BDE8F883AB89012B07D9B5F9A2
:103ECC000E30013303D029463046C04707436835CE
:103EDC00E9E770477047704770B50E4E0C46316875
:103EEC00054611B900F0C2FB30602146284600F0AF
:103EFC00BDFB431C0AD0C41C24F00304A04207D011
:103F0C00211A284600F0B2FB013001D14FF0FF34EA
:103F1C00204670BDD81300202DE9F041CD1C25F0B2
:103F2C00030508350C2D38BF0C25002D074601DB89
:103F3C00A94205D90C2300263B603046BDE8F08130
:103F4C002E4E00F00DFE33681C4634BB2946384615
:103F5C00FFF7C2FF431C04464DD134682646002EA1
:103F6C0040D123683146384604EB030800F07EFB51
:103F7C0080453AD1216803356D1A25F003050835C3
:103F8C000C2D38BF0C2538462946FFF7A5FF01300C
:103F9C002BD023682B4423600EE02268521B1ED4C6
:103FAC000B2A16D96119A342256018BF59606368A2
:103FBC0008BF316062514B60384604F10B0600F0CB
:103FCC00D5FD26F00706231DF21AB6D09B1BA35075
:103FDC00B3E76268A3420CBF32605A60ECE7234639
:103FEC006468B2E734467668B9E70C2338463B6020
:103FFC0000F0BCFDA1E72560DEE700BFD413002074
:10400C00936810B4013B002B936007DA9469A342C8
:10401C0001DB0A2902D110BC00F07CBB1368581CD0
:10402C0010601970084610BC7047F8B506460F466C
:10403C001446D518AC4201D1002007E03A46304670
:10404C0014F8011BFFF7DCFF431CF3D1F8BD000093
:10405C002DE9F04F0D461446984606469DB018B112
:10406C0083690BB9FFF798FE894B9D421BD175688C
:10407C006B6ED90705D4AB899A0502D4A86DFFF7EE
:10408C0029FFAB891B0701D52B69EBB929463046B3
:10409C0000F0A4FBC0B16B6EDC070ED54FF0FF3007
:1040AC001DB0BDE8F08F7B4B9D4201D1B568DFE7B9
:1040BC00794B9D4208BFF568DAE7AB899805EDD4DA
:1040CC00A86DFFF708FFE9E70023099320238DF87B
:1040DC00293030234FF00109CDF80C80DFF8BC817A
:1040EC008DF82A3023469A4613F8012B0AB1252A5B
:1040FC00F9D1BAEB040B0BD05B462246294630466D
:10410C00FFF793FF013000F0AA80099A5A440992F4
:10411C009AF80030002B00F0A28000234FF0FF3201
:10412C00CDE905230AF1010A049307938DF8533066
:10413C001A935446052214F8011B584800F002FD4E
:10414C00049AD8B9D10644BF20238DF853301307F5
:10415C0044BF2B238DF853309AF800302A2B15D0FE
:10416C00544600204FF00A0C079A214611F8013BE7
:10417C00303B092B4ED9B0B1079214E0A0EB0803E9
:10418C0009FA03F31343A2460493D2E7039B191DC8
:10419C001B680391002BBBBF5B4242F002020793EA
:1041AC000793B8BF049223782E2B0CD163782A2B5B
:1041BC0035D1039B02341A1D1B680392002BB8BF28
:1041CC004FF0FF330593DFF8D8A003225046217837
:1041DC0000F0B8FC40B14023A0EB0A0003FA00F059
:1041EC00049B01340343049314F8011B06222D484D
:1041FC008DF8281000F0A6FC00283FD02A4B1BBBE2
:10420C00039B073323F0070308330393099B3B44B9
:10421C00099367E70C4601200CFB0232A5E700234B
:10422C004FF00A0C194601340593204610F8012B67
:10423C00303A092A03D9002BC5D00591C3E70446AF
:10424C0001230CFB0121F0E703AB00932A46304617
:10425C00164B04A9AFF300800746781CD6D16B6EC1
:10426C00D90705D4AB899A0502D4A86DFFF733FEA4
:10427C00AB895B063FF512AF099811E703AB0093CE
:10428C002A463046094B04A900F082F8E4E700BF47
:10429C00E04D0008004E0008C04D0008204E0008FC
:1042AC00264E00082A4E0008000000003740000887
:1042BC002DE9F047164699468A680B6907469342E2
:1042CC00B8BF1346336091F843200C46DDF82080CC
:1042DC000AB1013333602368990642BF3368023355
:1042EC003360256815F0060506D104F1190AE36858
:1042FC0032689B1AAB4228DC94F84320131E2268C8
:10430C0018BF012392062DD44946384604F14302C6
:10431C00C047013020D02368E56803F00603042B66
:10432C0018BF002532684FF00006A36808BFAD1A0D
:10433C00226908BF25EAE5759342C4BF9B1AED18A4
:10434C001A34B5421AD1002008E0012352464946DE
:10435C003846C047013003D14FF0FF30BDE8F0873D
:10436C000135C4E73020E11881F843005A1C94F859
:10437C0045102244023382F84310C5E7012322463C
:10438C0049463846C0470130E6D00136D9E700002F
:10439C002DE9FF470F7E9146782F80460C469A46B2
:1043AC000C9D01F1430207D8622F0AD8002F00F0B0
:1043BC00D980582F00F0A48004F1420584F8427093
:1043CC003AE0A7F16303152BF6D801A151F823F0BD
:1043DC003544000849440008C5430008C54300089B
:1043EC00C5430008C543000849440008C5430008FC
:1043FC00C5430008C5430008C543000857450008DD
:10440C007944000839450008C5430008C543000835
:10441C0079450008C543000879440008C5430008E5
:10442C00C5430008414500082B681A1D1B682A600B
:10443C0004F1420584F842300123A4E02068296885
:10444C00060601F104030AD50E682B60002E03DA70
:10445C002D23764284F843300A235E4819E00E6817
:10446C0010F0400F2B6018BF36B2EFE72B682068B6
:10447C00191D2960010601D51E6802E04606FBD510
:10448C001E886F2F0CBF08230A235248002184F882
:10449C0043106568002DA8BF2168A560A4BF21F05A
:1044AC00040121600EB9002D4DD01546B6FBF3F179
:1044BC0003FB1167C75D05F8017D3746BB420E460D
:1044CC00F4D9082B0BD12368DE0708D52369616862
:1044DC009942DEBF302305F8013C05F1FF35521B34
:1044EC0022614B4621464046CDF800A003AAFFF7B7
:1044FC00DFFE01304CD14FF0FF3004B0BDE8F08747
:10450C00344881F845702968236851F8046B296098
:10451C001D0614D5DF0744BF43F0200323601EB9EA
:10452C00236823F0200323601023AFE7236843F0B4
:10453C00200323607823284884F84530E3E75906A4
:10454C0048BFB6B2E6E71546BBE72B682668181DD0
:10455C006169286035061B6801D5196002E0700698
:10456C00FBD51980002315462361BAE72B6800217F
:10457C001A1D2A601D686268284600F0E3FA08B12B
:10458C00401B606063682361002384F84330A8E714
:10459C002A46494640462369D0470130ABD02368B0
:1045AC009B0713D4E068039B9842B8BF1846A4E756
:1045BC000123324649464046D04701309BD0013555
:1045CC00E36803995B1AAB42F2DCEBE7002504F1DC
:1045DC001906F5E7314E0008424E000870B50D463D
:1045EC001446064618B183690BB9FFF7D5FB1C4B73
:1045FC009C4224D17468636ED80705D4A3899905AD
:10460C0002D4A06DFFF766FCA368013B002BA360EE
:10461C0005DAA26993421CDBEBB20A2B19D0236892
:10462C005A1C22601D70EDB2636EDA0705D4A389A3
:10463C009B0502D4A06DFFF74EFC284670BD094BBC
:10464C009C4201D1B468D6E7074B9C4208BFF46882
:10465C00D1E729462246304600F05CF80546E3E7F0
:10466C00E04D0008004E0008C04D000838B500238E
:10467C00054D044608462B6000F022FB431C02D17A
:10468C002B6803B1236038BDDC13002010B50C4639
:10469C00B1F90E1000F0B8FA0028ABBF636DA38916
:1046AC001B1823F48053ACBF6365A38110BD2DE9A7
:1046BC00F0411F468B890546DB050C46164605D591
:1046CC0002230022B1F90E1000F0C4F9A38932467E
:1046DC0023F48053A38128463B46B4F90E10BDE861
:1046EC00F04100F069B810B50C46B1F90E1000F0AD
:1046FC00B1F9431CA38915BF606523F4805343F4BF
:10470C008053A38118BFA38110BDB1F90E1000F026
:10471C00D3B80000F8B50E461446054618B18369A7
:10472C000BB9FFF739FB214B9C422BD16C68A36969
:10473C00A360A3891A072FD523696BB3236920685B
:10474C00F6B2C01A63693746834204DC2146284618
:10475C0000F044F930BBA3680130013BA36023682F
:10476C005A1C22601E706369834204D0A389DB0744
:10477C0006D50A2E04D12146284600F02FF988B917
:10478C003846F8BD0A4B9C4201D1AC68CFE7094BC7
:10479C009C4208BFEC68CAE72146284600F01EF888
:1047AC000028CBD04FF0FF37EAE700BFE04D000800
:1047BC00004E0008C04D000838B5044608461146A6
:1047CC000022054D2A601A4600F088FA431C02D1DB
:1047DC002B6803B1236038BDDC130020324B70B55D
:1047EC001D6806460C4625B1AB6913B92846FFF780
:1047FC00D3FA2E4B9C420FD16C68A389B4F90C20D0
:10480C0019072CD4DD0611D40923336042F0400380
:10481C004FF0FF30A3813EE0254B9C4201D1AC68A8
:10482C00EBE7244B9C4208BFEC68E6E7580712D52F
:10483C00616B41B104F14403994202D0304600F05F
:10484C009BF900236363A38923F02403A381002332
:10485C00636023692360A38943F00803A381236960
:10486C004BB9A38903F42073B3F5007F03D0214621
:10487C00304600F027F9A089B4F90C2010F00103A0
:10488C000AD00023A36063695B42A361236943B927
:10489C0010F08000BAD170BD810758BF6369A36066
:1048AC00F4E70020F7E700BF7C010020E04D000892
:1048BC00004E0008C04D000838B50023054D0446D5
:1048CC0008462B6000F0D4F9431C02D12B6803B1CD
:1048DC00236038BDDC1300208A89F8B50546100723
:1048EC000C4657D44B68002B04DC0B6C002B01DC02
:1048FC000020F8BDE66A002EFAD0002312F4805294
:10490C002F682B6032D0606DA3895A0705D5636878
:10491C00C01A636B0BB1236CC01A00230246E66A03
:10492C002846216AB047431CA38906D129681D2952
:10493C002CD8294ACA40D60728D5002262602269A1
:10494C00D904226004D5421C01D12B6803B96065DF
:10495C00616B2F600029CBD004F14403994202D043
:10496C00284600F009F900206063C2E7216A0123A0
:10497C002846B047411CC7D12B68002BC4D01D2B37
:10498C0001D0162B01D12F60B2E7A38943F040036D
:10499C00A381AEE70F69002FAAD0930718BF00239D
:1049AC000E6808BF4B69F61B0F608B60002E9FDDF5
:1049BC0033463A462846216AD4F828C0E0470028F6
:1049CC0006DCA3894FF0FF3043F04003A38190E74E
:1049DC000744361AEAE700BF0100402038B50B69DE
:1049EC0005460C4613B90025284638BD18B1836915
:1049FC000BB9FFF7D1F9144B9C421BD16C68B4F97D
:104A0C000C30002BEFD0626ED00704D4990502D481
:104A1C00A06DFFF75FFA28462146FFF75DFF636E36
:104A2C000546DA07E0D4A3899B05DDD4A06DFFF71A
:104A3C0052FAD9E7054B9C4201D1AC68DFE7044B35
:104A4C009C4208BFEC68DAE7E04D0008004E000815
:104A5C00C04D000838B50446084611460022054DE5
:104A6C002A601A4600F01CF9431C02D12B6803B1D2
:104A7C00236038BDDC13002070B50E46B1F90E1062
:104A8C00144600291D4696B008DA0022B6F90C30FF
:104A9C002A601A0610D44FF480630EE06A4600F0C8
:104AAC00C5F80028F1DB019A02F47042A2F500531C
:104ABC005A425A412A60EEE740230020236016B088
:104ACC0070BD00008B8973B59D0706460C4607D553
:104ADC0004F14703236023610123636102B070BDBD
:104AEC006A4601ABFFF7C8FF009905463046FFF751
:104AFC0013FA48B9B4F90C309A05EFD423F0030338
:104B0C0043F00203A381E3E70D4BB362A38920605A
:104B1C0043F08003A381009B20616361019B5BB127
:104B2C003046B4F90E1000F093F828B1A38923F0A5
:104B3C00030343F00103A381A0890543A581CDE7BD
:104B4C003D3D0008034610B5C9B2024493421846D5
:104B5C0001D1002003E0047801338C42F6D110BD62
:104B6C000148FFF7B7B900BFD11300200148FFF788
:104B7C00B2B900BFD113002038B50546002940D08A
:104B8C0051F8043C0C1F002BB8BFE418FFF7E8FFEA
:104B9C001C4A136833B9636014602846BDE838407A
:104BAC00FFF7E4BFA34208D9206821188B4201BF4C
:104BBC0019685B6809182160EDE71A465B680BB150
:104BCC00A342FAD911685018A0420BD120680144B5
:104BDC00501883421160E0D118685B680144116081
:104BEC005360DAE702D90C232B60D6E72068211832
:104BFC008B4201BF19685B680918216063605460BF
:104C0C00CBE738BDD413002038B50446084611460E
:104C1C000022054D2A601A4600F04AF8431C02D1C6
:104C2C002B6803B1236038BDDC13002038B500239A
:104C3C00064D0446084611462B6000F021F8431C33
:104C4C0002D12B6803B1236038BD00BFDC130020F8
:104C5C0038B50023054D044608462B6000F018F8C3
:104C6C00431C02D12B6803B1236038BDDC13002038
:104C7C005822024B4FF0FF301A607047DC130020B3
:104C8C005822024B4FF0FF301A607047DC130020A3
:104C9C005822024B00201A60704700BFDC13002022
:104CAC005822024B4FF0FF301A607047DC13002083
:104CBC005822024B4FF0FF301A607047DC13002073
:104CCC00044A05491368002B08BF0B4618441060B2
:104CDC0018467047E0130020E81300205822024BBE
:104CEC004FF0FF301A607047DC130020F8B500BF9E
:104CFC00F8BC08BC9E467047F8B500BFF8BC08BCB1
:044D0C009E46704708
:104D10006C6F6C0D0A00000053544D3332205669FD
:104D2000727475616C20436F6D506F727400000077
:104D300053544D6963726F656C656374726F6E690D
:104D40006373000043444320436F6E66696700004D
:104D500043444320496E74657266616365000000D8
:104D600002030405060708090A0B0C0D0E0F1010AC
:104D70000000000000000000000000000102030429
:104D8000060708094552524F523A2000496E766193
:104D90006C6964204465766963652068616E646C43
:104DA00065000000496E76616C696420436C617334
:104DB000732068616E646C65000000008001002053
:104DC00000000000000000000000000000000000E3
:104DD00000000000000000000000000000000000D3
:104DE00000000000000000000000000000000000C3
:104DF00000000000000000000000000000000000B3
:104E000000000000000000000000000000000000A2
:104E10000000000000000000000000000000000092
:104E2000232D302B2000686C4C0065666745464793
:104E30000030313233343536373839414243444516
:104E40004600303132333435363738396162636485
:044E50006566000093
:044E54003101000820
:044E58000D01000840
:104E5C001503000821030008E5030008C10300083E
:104E6C00AD0300080104000825040008120100022B
:104E7C0002020040830440570002010203010000BB
:104E8C00040309041A0300000000000000000000E5
:104E9C000000000000000000000000000000000006
:104EAC006D040008490400084D0400085104000872
:104EBC0001000000100000000024F400C13A0008BA
:104ECC007F3A0008A939000800000000D538000816
:104EDC005B3900082D3900080000000000000000BC
:104EEC000000000009390008FD38000815390008D9
:104EFC002139000809024300020100C032090400F4
:104F0C00000102020100052400100105240100012A
:104F1C000424020205240600010705820308001080
:104F2C0009040100020A000000070501024000000C
:104F3C00070581024000000009024300020100C085
:104F4C0032090400000102020100052400100105D1
:104F5C002401000104240202052406000107058235
:104F6C000308001009040100020A000000070501F3
:104F7C000200020007058102000200000A0600027E
:104F8C00000000400100000009074300020104C0BA
:104F9C003209040000010202010005240010010581
:104FAC0024010001042402020524060001070582E5
:104FBC000308001009040100020A000000070501A3
:104FCC000240000007058102400000008001002023
:104FDC0000000000E04D0008004E0008C04D000825
:104FEC0000000000000000000000000000000000B5
:104FFC0000000000000000000000000000000000A5
:10500C000000000000000000000000000000000094
:10501C000000000000000000000000000000000084
:10502C000000000000000000000000000000000074
:0400000508003BF9BB
:00000001FF
